:020000040000FA
:040000002EEF0FF0E0
:08000800056ED8CF06F0E950A7
:10001000076EEA50086EE150096EE2500A6ED95040
:100020000B6EDA500C6EF350146EF450156EE050F7
:100030000D6E000100500F6E0150106E0250116ED7
:100040000350126E0450136EF2AA2AEF00F0F2B4BD
:100050007BEF00F09DA030EF00F09EB069EF00F064
:100060009DA236EF00F09EB229EF03F0A3AA3CEF69
:1000700000F0A4BA36EF03F0A3A242EF00F0A4B25E
:1000800025EF03F0A3A048EF00F0A4B021EF03F0A8
:100090000F50006E1050016E1150026E1250036E20
:1000A0001350046E0D50E06E0D8E0750E96E08502F
:1000B000EA6E0950E16E0A50E26E0B50D96E0C5098
:1000C000DA6E1450F36E1550F46E055006C0D8FF6A
:1000D0001000850ECF6EED0ECE6E0B01585302E070
:1000E000580705D02FCB58FB2AA501D02A879E9010
:1000F000000148EF00F0D76A660ED66E0B0155532B
:1001000003E05551550702D093988A880001965311
:1001100001E09607975301E097070B01545302E063
:1001200054070DD00F0140B707D030B705D020B726
:1001300003D0939A8A8A02D0939A8A9A0B015753D2
:1001400003E05751570702D096928D82565302E032
:10015000560706D00001945302E196908D800B0162
:10016000938281A202D096908D900001932D05D0AC
:100170000B012A890001936B03D0935301E093078D
:10018000F29448EF00F00B01AB51AD03F3CF01F057
:10019000F4CF00F0AE03F3500026AC51AD03F350A2
:1001A0000020026E0001000C0B01AC6BAACBABFB74
:1001B000AE6B120EAD6F0001E6DF02C003F001501E
:1001C0009C0F016E000E032203C002F0000CC1CB95
:1001D000C4FBC0CBC3FB0B01C2A751D0BECBE9FF10
:1001E000BFCBEAFFEF34006E00360036F80E001683
:1001F000C4CBEAFFC3CBE9FF00C0EFFF010EC3256C
:10020000016E000EC421036E03C0C6FBBECBE9FF26
:10021000BFCBEAFFEF38006E0032070E0016C6CBE8
:10022000EAFF01C0E9FF00C0EFFFBE2BD8B4BF2B2F
:10023000C4CBEAFFC3CBE9FFEFCFC7FBBECBE9FFDF
:10024000BFCBEAFFEF38006E0032070E00160050F9
:10025000C711C96FC4CBEAFFC3CBE9FFC9CBEFFF1E
:10026000020EC325E96E000EC421EA6EEF6A030E8A
:10027000C325E96E000EC421EA6EEF6A97D0020E24
:10028000C325016E000EC421036E03C0C6FBBECBA6
:10029000E9FFBFCBEAFFEF38006E0036E00E001634
:1002A000C6CBEAFF01C0E9FF00C0EFFF030EC32584
:1002B000016E000EC421036E03C0C6FBBECBE9FF76
:1002C000BFCBEAFFEF30006E003200321F0E001687
:1002D000C6CBEAFF01C0E9FF00C0EFFFBE2BD8B4D8
:1002E000BF2B020EC325016E000EC421036E03C096
:1002F000C6FB03C0EAFF01C0E9FFEFCFC7FBBECBDF
:10030000E9FFBFCBEAFFEF50030BC711C96FC6CBA4
:10031000EAFF01C0E9FFC9CBEFFF020EC325016E62
:10032000000EC421036E03C0C6FB03C0EAFF01C078
:10033000E9FFEFCFC7FBBECBE9FFBFCBEAFFEF5032
:10034000E00B006E0032003200321F0E001600502B
:10035000C711CA6FC6CBEAFF01C0E9FFCACBEFFFE6
:10036000BE2BD8B4BF2B010EC325016E000EC421D5
:10037000036E03C0C6FBBECBE9FFBFCBEAFFEFCFE6
:10038000C7FBC6CBEAFF01C0E9FFC7CBEFFFBE2B1F
:10039000D8B4BF2BBECBE9FFBFCBEAFFEFCFC7FB83
:1003A000C4CBEAFFC3CBE9FFC7CBEFFF0001000CD2
:1003B0000B01AD51016AAC5D03E2ACCB00F00CD097
:1003C000006A080EAE6FAC370036AD51005CD8B095
:1003D000006E0136AE2FF7D70001000C28CBAAFB28
:1003E000E3DE02C0A9FB01C0A8FB0B01A851AA6F64
:1003F000A951AB6F0A0EA825AC6F000EA921AD6FF5
:10040000090EA825AE6F000EA921AF6F080EA82512
:10041000B06F000EA921B16FABCBB3FBAACBB2FB7F
:10042000ADCBB5FBACCBB4FBAFCBB7FBAECBB6FB28
:10043000B1CBB9FBB0CBB8FBB8CBE9FFB9CBEAFF86
:10044000EF6A60AE20D0F10E6F16BD81A49074AE3D
:1004500008D0B8CBE9FFB9CBEAFFEF500809EF6E3F
:10046000749E60A40FD0B8CBE9FFB9CBEAFF60500F
:10047000070BEF10EF6EB8CBE9FFB9CBEAFFEF50F7
:10048000010BEF6E34D00F0150AF2DD0F10E6F166F
:100490000A0E6F120B01BD91A49274AC08D0B8CBB8
:1004A000E9FFB9CBEAFFEF500809EF6E749CB8CBB7
:1004B000E9FFB9CBEAFF0F015051070BEF10EF6EC8
:1004C000B9CB03F00B01B8CBE9FFB9CBEAFFEF5092
:1004D000010807E3B8CBE9FFB9CBEAFFEF50800989
:1004E000EF6E05D00F01000E016E72D00B01B6CB7E
:1004F000E9FFB7CBEAFF65500F0BEF6E60A607D0A0
:10050000B8CBE9FFB9CBEAFFEF504009EF6E62A626
:1005100015D0B8CBE9FFB9CBEAFFEF502009EF6E59
:100520000F0EBF6F610EBE6FB3CBC1FBB2CBC0FB72
:10053000F70EC26F00014BDE0DD00B010F0EBF6F27
:10054000610EBE6FB3CBC1FBB2CBC0FBFF0EC26F5F
:1005500000013DDE0F0E0B01BC6F660EBB6FBA6B68
:10056000B7CB03F0B6CBE9FFB7CBEAFFEF50BA5DEC
:1005700019E2036ABA51B425016EB551032203C0D2
:10058000BFFB036ABA51BB25E96EBC510320EA6E7A
:10059000EFCFC0FBBFCBEAFF01C0E9FFC0CBEFFF4D
:1005A000BA2BDED7F10E6F16A4AE08D0B8CBE9FF98
:1005B000B9CBEAFFEF501009EF6EA49EBDA102D0A7
:1005C000609E03D00F01509F0B01010E016E0F01C1
:1005D000015235E0080E0B01A825E96E000EA92195
:1005E000EA6EEFB829D0040EA825E96E000EA92105
:1005F000EA6E2BCBEFFF2CCBECFF2DCBECFF2ECB01
:10060000ECFF28CBA7FB010E2825AB6FABCBACFBD7
:10061000960EAD6F0001CCDE00C028FB0B01295106
:10062000285D02E1A7CB28FB28CBAAFB0001BCDD9B
:1006300002C0A9FB01C0A8FB0001D7D60F01000131
:10064000000CCCDEA49048EF00F0C8DEA49248EF86
:1006500000F0010E0B012B27D8B02C2BD8B42D2B7A
:10066000D8B42E2B9E92000148EF00F00B012A8B8C
:10067000A39AA49A000148EF00F0946B956B926BDB
:100680009294899492968986000E956E94908B80B0
:10069000BAEF05F06F88400E6F6E6E50E00B4008A9
:1006A000FCE16DCB6FFF6E50E00B0B016D5DD8B4BC
:1006B00002D00001F8D76F980001000C0B016D0704
:1006C0006E076F07700771076D39706E7036703680
:1006D000C00E70166E5170126F35716E71367136B4
:1006E000F80E71167151711272B501D0718C72A130
:1006F00001D0718E70CB72FF72A301D0728C000199
:10070000000C0B0E0B017D6F770E7C6F7BA73DD02D
:100710007CCBE9FF7DCBEAFFEF30006E0032003288
:100720001F0E001676CBEAFF75CBE9FF00C0EFFF86
:1007300076CBEAFF75CBE9FFEFCF80FB010E7C257E
:10074000E96E000E7D21EA6EEF38006E0036E00E95
:10075000001600508011826F76CBEAFF75CBE9FF5F
:1007600082CBEFFF752BD8B4762B7CCBE9FF7DCB0A
:10077000EAFFEF38006E0036E00E001676CBEAFF97
:1007800075CBE9FF00C0EFFF81D0020E7C25E96E3A
:10079000000E7D21EA6EEF38006E0032070E001663
:1007A00076CBEAFF75CBE9FF00C0EFFF76CBEAFF1F
:1007B00075CBE9FFEFCF80FB030E7C25E96E000EC1
:1007C0007D21EA6EEF34006E00360036F80E00161A
:1007D00000508011826F76CBEAFF75CBE9FF82CBA8
:1007E000EFFF752BD8B4762B020E7C25E96E000E38
:1007F0007D21EA6EEF34006E00360036F80E0016EA
:100800000050E00B826F76CBEAFF75CBE9FF82CB1D
:10081000EFFF75CBE9FF76CBEAFFEF500809EF6EEB
:1008200076CBEAFF75CBE9FFEFCF80FB020E7C258C
:10083000E96E000E7D21EA6EEF50030B8011826F8E
:1008400076CBEAFF75CBE9FF82CBEFFF752BD8B4EF
:10085000762B010E7C25E96E000E7D21EA6EEFCF2E
:1008600080FB76CBEAFF75CBE9FF80CBEFFF752BE2
:10087000D8B4762B7CCBE9FF7DCBEAFFEFCF80FBB2
:1008800076CBEAFF75CBE9FF80CBEFFF0001000CD0
:100890000B016D5305E10F0E746F180E736F04D0CA
:1008A0000F0E746F1C0E736F74CB76FB73CB75FBDE
:1008B00071CB7AFB70CB79FB6FCB78FB6ECB77FB80
:1008C00072CB7BFB00011DDF000C0B016D51000A98
:1008D000000109E0010A0CE0030A10E0010A14E03B
:1008E000070A18E01DD00F0E0B01746F736B1ED03A
:1008F0000F0E0B01746F040E736F18D00F0E0B01E7
:10090000746F080E736F12D00F0E0B01746F0C0E04
:10091000736F0CD00F0E0B01746F100E736F06D037
:100920000F0E0B01746F140E736F00D074CB76FB37
:1009300073CB75FB71CB7AFB70CB79FB6FCB78FBFC
:100940006ECB77FB72CB7BFB0001DBDE000C93866A
:100950009394200E736E800E0B016D6F00019ADE72
:100960005ECB6DFB5FCB6EFB60CB6FFB61CB70FB37
:1009700062CB71FB63CB72FBA1DE0B016351600B99
:10098000606E6351100BFF0801E1608460CF50FF7F
:100990006D6B716B706B6F6B6E6BF70E726F00012E
:1009A00077DF010E0B016D6F716B706B6F6B6E6B90
:1009B000F70E726F00016CDF0B016351600B9F0932
:1009C000DF0A000103E0600A06E00AD0F70E0B011F
:1009D000646F656F0BD0FF0E0B01646F656F06D0FF
:1009E000FF0E0B01646FF70E656F00D06D6B716BBE
:1009F000706B6F6B6E6B64CB72FB000166DF010E78
:100A00000B016D6F716B706B6F6B6E6B64CB72FBF8
:100A100000015BDF020E0B016D6F716B706B6F6B12
:100A20006E6B65CB72FB000150DF030E0B016D6F27
:100A3000716B706B6F6B6E6B65CB72FB000145DF8A
:100A4000040E0B016D6F716B706B6F6B6E6B65CB12
:100A500072FB00013ADF050E0B016D6F716B706B5D
:100A60006F6B6E6B65CB72FB00012FDF0B016D6B43
:100A7000000110DE000C6BCB70FF6CCB71FF6DCBF7
:100A800072FF000C938081B00AD0FF0E956E929693
:100A90008996000092968986000E956EF3D7000C19
:100AA0000B0EEA6E5F0EE96EEF500FE00C0E016E5A
:100AB000006A002EFED7012EFBD7F70E006E002E27
:100AC000FED700000000EF2EF1D7000C0B015E6B8B
:100AD0005E51020836E3939A8A9A93988A88969090
:100AE0008D8096928D82190E5F6F0001D9DF939AE7
:100AF0008A8A93988A9896908D8096928D82190E04
:100B00000B015F6F0001CCDF939A8A8A93988A88E1
:100B100096908D9096928D82190E0B015F6F000159
:100B2000BFDF939A8A8A93988A8896908D8096924E
:100B30008D92190E0B015F6F0001B2DF0B015E2B6E
:100B4000C7D796928D820001B6EF06F0936B0B012A
:100B50002A99F29CF29EF2BEFDD798908F809398CE
:100B60008A98939A8A9A96928D9296908D90D19027
:100B7000000183D5F19EF2CF5EFBF29EAA6A010EC0
:100B8000A96EA69CA69EA680A8500B015EBFF28E01
:100B90005A6F5A51AA0843E1040E5E6F5F6F080E48
:100BA000606F616F030E626F010E636F0001CFDE35
:100BB000800E0B016D6F00016DDDF2CF5EFBF29ECA
:100BC000AA6A020EA96EA69CA69EA680A8500B013A
:100BD0005EBFF28E5B6FF2CF5EFBF29EAA6A030EDF
:100BE000A96EA69CA69EA680A8505EBFF28E5C6FE2
:100BF000F2CF5EFBF29EAA6A040EA96EA69CA69E88
:100C0000A680A8505EBFF28E5D6F5BCB6BFB5CCBAA
:100C10006CFB5DCB6DFB00012EDF3ED00B01F2CFF4
:100C20005EFBF29EAA6AA96AA69CA69EA680A85010
:100C30005EBFF28E596F592D01D021D05951020853
:100C40001EE0595104081BE05951080818E0040E31
:100C5000596FAA6AA96A59CBA8FFA69CA69EA6842A
:100C6000F2CF00F0F29E0F01550EA76EAA0EA76EEE
:100C7000A682A6B2FED7A6940050F2120B01040E73
:100C80005E6F59CB5FFB080E606F616F030E626F82
:100C9000010E636F00015BDEA390A392A39A800E06
:100CA0000B016D6F0001F6DC93988A880B016D6B68
:100CB000716B706B6F6B6E6BF70E726F0001E8DD1E
:100CC000010E0B016D6F716B706B6F6B6E6BF70EBE
:100CD000726F0001DDDD0B016D6B716B706B6F6B03
:100CE0006E6BFF0E726F0001F0DD010E0B016D6F78
:100CF000716B706B6F6B6E6BF70E726F0001E5DDE1
:100D0000020E0B016D6F716B706B6F6B6E6BFF0E74
:100D1000726F0001DADD030E0B016D6F716B706B8A
:100D20006F6B6E6BFF0E726F0001CFDD040E0B0157
:100D30006D6F716B706B6F6B6E6BF70E726F000186
:100D4000C4DD050E0B016D6F716B706B6F6B6E6B9D
:100D5000F70E726F0001B9DD0B016D6B00019ADCBB
:100D6000939A8A8A8FDE96928D82B0D60B012F6B72
:100D70002A970001966B976B0B012A9BD190810EED
:100D8000D56EB50ECD6E480E016E0409CA6E630EA7
:100D9000CB6EF28A9D90A380A382A38A9D82C00E0F
:100DA000F212000155EF0FF00B016F6B706B938225
:100DB000000E81B2010E01081CE1210E006E002E12
:100DC000FED76F2BD8B4702B70514D0811E2FF0A7B
:100DD00003E16F5120080CE29382000E81B2010EF4
:100DE000010806E1010E0001956F4CDE0AD00B01EF
:100DF000DED7929489846ECB83FF0000929489940D
:100E00000001000C0B016B6B6C6B010E0001946F09
:100E1000100E0B016E6F0001C7DF020E0B016E6F2B
:100E20000001C2DF0B016B6B000191510B016B5D87
:100E300028E2036A6B51550FE96E000E0320EA6E3B
:100E4000EF506C1B036A6B51550FE96E000E0320C7
:100E5000EA6EEF50100805E1100E6E6F0001A4DF7E
:100E60000B01036A6B51550FE96E000E0320EA6E09
:100E7000EFCF6DFB6DCB6EFB000196DF0B016B2B93
:100E8000D3D76C51100804E1100E6E6F00018CDF97
:100E90006CCB6EFB000188DF100E0B016E6F000142
:100EA00083DF030E0B016E6F00017EDF946B000C7D
:100EB00099510B01595D07E102D000A004D0320E18
:100EC0000001976F10D00001936BFF0E556E800EDE
:100ED000566E59CB57F0030E916F94DF926B59CB3E
:100EE00099F0320E976F000C98510B016A5D08E182
:100EF00002D000A005D0320E0001966F0FD00B017A
:100F0000FF0E556E800E566E6ACB57F0030E000131
:100F1000916F78DF6ACB98F0320E966F000C0B0160
:100F20002A952A979D900001000C0F014097309759
:100F300020970001000C938081B094D0FF0E956E35
:100F400092968996000083CF9AF092968986000E39
:100F5000956E9251000A0AE0010A19E0030A24E0A2
:100F6000010A3EE0070AD8B46ED074D09A51100836
:100F700007E1320E936F010E926F9B6B546A06D09D
:100F8000640E0B01596F000193DF6CD06AD09A5147
:100F9000020803E1020E926F06D0650E0B01596F35
:100FA000000186DF5FD05DD09A51100803E1030E87
:100FB000926F15D05450542A036A180FE96E000E30
:100FC0000320EA6E9AC0EFFF9A519B1B54503B08D6
:100FD00006E2690E0B01596F00016ADF43D041D070
:100FE0009A5103080EE19B5305E1936B040E926F37
:100FF00039D006D0660E0B01596F000159DF32D08F
:1010000021D09A51020807E1670E0B01596F0001C8
:101010004FDF28D017D05450542A036A180FE96EB6
:10102000000E0320EA6E9AC0EFFF9A519B1B020E3E
:10103000926F54503B0806E2690E0B01596F000194
:1010400037DF10D00ED0680E0B01596F000130DF72
:1010500009D007D0680E0B01596F000129DF02D0BB
:1010600000D069D7B0EF0FF0010E0B01546F939AC7
:101070008A9A0001000C6F98F29CF29EF2BEFDD796
:101080000F0140B704D0F10E6F166F8617D030B73E
:1010900005D0F10E6F16060E6F1210D020B704D0D7
:1010A000F10E6F166F840AD06F0E0B016A6F00018C
:1010B0001BDFC00EF212000E016E4BD00B01675108
:1010C000030B606E67B713D00F0E766F610E756FEE
:1010D00063CB7AFB62CB79FB61CB78FB60CB77FB90
:1010E000F70E7B6F000181EC03F012D00B010F0EA5
:1010F000766F610E756F63CB7AFB62CB79FB61CB48
:1011000078FB60CB77FBFF0E7B6F000181EC03F077
:1011100066CB65FF0B0167BD01D0658C0F0E696F53
:10112000660E686F69CBEAFF68CBE9FF65CBE2FF2B
:1011300064CBE1FF6651016E04E0E6CFEEFF012EC5
:10114000FCD76086F10E6F16C00EF212010E016E12
:101150000001000C6E50A00B000A03E00B012A975F
:1011600023D0FC0E0B01596F33AF02D0599700D03A
:1011700033AD01D0599D000177DF33CB63FB32CB18
:1011800062FB31CB61FB30CB60FB0B0E0B01656F5B
:101190003A0E646F39CB66FB59CB67FB00016BDFFE
:1011A000012C03D00B012A970001B6EF0FF0010EBE
:1011B0000B01576F96928D920001BBEF0FF0F2CFAB
:1011C0006DFBF29EAA6AA96AA69CA69EA680A8505C
:1011D0000B016DBFF28E6C6F6B516C5D16E0AA6AED
:1011E000A96A6BCBA8FFA69CA69EA684F2CF00F0AE
:1011F000F29E0F01550EA76EAA0EA76EA682A6B28A
:10120000FED7A6940050F2120B01AA6A010EA96E35
:10121000550EA86EA69CA69EA684F2CF00F0F29E64
:101220000F01550EA76EAA0EA76EA682A6B2FED714
:10123000A6940050F212800E0B016D6F00014AEC73
:1012400003F0040E0B016D6F6BCB6EFB080E6F6F1E
:10125000706F030E716F010E726F00015EEC03F090
:101260000B016D6B00014AEC03F0000C010E0B0149
:10127000566F96908D900001000C19507F0B0B015A
:10128000606F556A19C056F0020E0001916F0B0194
:101290006051B90FD8B0A3EF0DF0470F0001AAEFCE
:1012A0000DF09151912B036A550FE96E000E03204A
:1012B000EA6ECC0EEF6E0B01A3EF0DF0FF000B01F9
:1012C000A3EF0DF09151912B036A550FE96E000EBB
:1012D0000320EA6E76CFEFFF0B01A3EF0DF09151E3
:1012E000912B036A550FE96E000E0320EA6E75CF4D
:1012F000EFFF0B01A3EF0DF09151912B036A550FF6
:10130000E96E000E0320EA6E6ECFEFFF0B01A3EF34
:101310000DF09151912B036A550FE96E000E0320D9
:10132000EA6E74CFEFFF0B01A3EF0DF00B01666BBC
:10133000570E656F2AA103D0036AF70E01D0FF0E86
:10134000C26F176AF2BE178EF29E0F0EBF6F180E95
:10135000BE6F66CBC1FB65CBC0FB0001E7EC00F0C4
:1013600017BEF28E100E91270B01666B5B0E656F38
:101370002AA303D0036AF70E01D0FF0EC26F176ACB
:10138000F2BE178EF29E0F0EBF6F1C0EBE6F66CBA5
:10139000C1FB65CBC0FB0001E7EC00F017BEF28E8D
:1013A0000B01666B5F0E656F0F0101A703D0036A27
:1013B000F70E01D0FF0E0B016C6F176AF2BE178E8D
:1013C000F29E0F0EBF6FBE6B66CBC1FB65CBC0FB41
:1013D0006CCBC2FB0001E7EC00F017BEF28E0B01F4
:1013E000666B630E656F0F0105A703D0036AF70EE6
:1013F00001D0FF0E0B016C6F176AF2BE178EF29EC2
:101400000F0EBF6F040EBE6F66CBC1FB65CBC0FB7A
:101410006CCBC2FB0001E7EC00F017BEF28E0B01B3
:1014200092D30B01666B570E656F0F0109A703D0AE
:10143000036AF70E01D0FF0E0B016C6F176AF2BE44
:10144000178EF29E0F0EBF6F080EBE6F66CBC1FBEC
:1014500065CBC0FB6CCBC2FB0001E7EC00F017BE14
:10146000F28E0B01666B5B0E656F0F010DA703D04B
:10147000036AF70E01D0FF0E0B016C6F176AF2BE04
:10148000178EF29E0F0EBF6F0C0EBE6F66CBC1FBA8
:1014900065CBC0FB6CCBC2FB0001E7EC00F017BED4
:1014A000F28E0B01666B5F0E656F0F0111A703D003
:1014B000036AF70E01D0FF0E0B016C6F176AF2BEC4
:1014C000178EF29E0F0EBF6F100EBE6F66CBC1FB64
:1014D00065CBC0FB6CCBC2FB0001E7EC00F017BE94
:1014E000F28E0B01666B630E656F0F0115A703D0BB
:1014F000036AF70E01D0FF0E0B016C6F176AF2BE84
:10150000178EF29E0F0EBF6F140EBE6F66CBC1FB1F
:1015100065CBC0FB6CCBC2FB0001E7EC00F017BE53
:10152000F28E100E91270B010ED31AC064FB1BC064
:1015300063FB1CC062FB1DC061FB0B012A911ABE3C
:101540002A812AA102D0F70E01D0FF0E726F6D6BB7
:1015500064CB71FB63CB70FB62CB6FFB61CB6EFB2B
:10156000000148EC04F01EC064FB1FC063FB20C0F8
:1015700062FB21C061FB0B012A931EBE2A832AA3B2
:1015800002D0F70E01D0FF0E726F010E6D6F64CBAB
:1015900071FB63CB70FB62CB6FFB61CB6EFB000119
:1015A00048EC04F022C064FB23C063FB24C062FB50
:1015B00025C061FB22AE06D0F70E006E016A026AFA
:1015C000036A01D0FF0E0B016C6F6D6B64CB71FB76
:1015D00063CB70FB62CB6FFB61CB6EFB6CCB72FBA2
:1015E000000165EC04F026C064FB27C063FB28C043
:1015F00062FB29C061FB26AE06D0F70E006E016AC1
:10160000026A036A01D0FF0E0B016C6F010E6D6F51
:1016100064CB71FB63CB70FB62CB6FFB61CB6EFB6A
:101620006CCB72FB000165EC04F00B018CD21AC08C
:1016300064FB1BC063FB1CC062FB1DC061FB1AAED8
:1016400006D0F70E006E016A026A036A01D0FF0E2F
:101650000B016C6F020E6D6F64CB71FB63CB70FB83
:1016600062CB6FFB61CB6EFB6CCB72FB000165EC58
:1016700004F01EC064FB1FC063FB20C062FB21C0DE
:1016800061FB1EAE06D0F70E006E016A026A036AA5
:1016900001D0FF0E0B016C6F030E6D6F64CB71FBFD
:1016A00063CB70FB62CB6FFB61CB6EFB6CCB72FBD1
:1016B000000165EC04F022C064FB23C063FB24C07E
:1016C00062FB25C061FB22AE06D0F70E006E016AF8
:1016D000026A036A01D0FF0E0B016C6F040E6D6F7E
:1016E00064CB71FB63CB70FB62CB6FFB61CB6EFB9A
:1016F0006CCB72FB000165EC04F026C064FB27C0D4
:1017000063FB28C062FB29C061FB26AE06D0F70E42
:10171000006E016A026A036A01D0FF0E0B016C6F52
:10172000050E6D6F64CB71FB63CB70FB62CB6FFBFF
:1017300061CB6EFB6CCB72FB000165EC04F00B011E
:1017400002D29151912B036A550FE96E000E0320CE
:10175000EA6E60BE07D00F0150AF02D0000102D088
:10176000000E02D0010E0F01EF6E0B01ECD1915172
:10177000912B036A550FE96E000E0320EA6E0F01EC
:1017800040A706D030A704D020A702D0000E01D079
:10179000010EEF6E0B01D7D19151912B036A550FBA
:1017A000E96E000E0320EA6E0F0140B706D030B795
:1017B00004D020B702D0000E01D0010EEF6E0B0155
:1017C000C2D19151912B036A550FE96E000E03208F
:1017D000EA6E6FCFEFFF0B01B6D19151912B036AE7
:1017E000550FE96E000E0320EA6E73CFEFFF0B0179
:1017F000AAD11AC02FFB0B01A6D11AC033FB1BC004
:1018000032FB1CC031FB1DC030FB1EC039FB1FC0AA
:101810003AFB20C03BFB21C03CFB22C03DFB23C068
:101820003EFB24C03FFB25C040FB26C041FB0B0113
:101830008AD10B012A852A87CF6A2FCBCEFF9D80C4
:1018400082D18FEC07F00B017ED1800E0B016D6F02
:1018500000014AEC03F00B0176D1400E0B016D6FD5
:1018600000014AEC03F00B016ED10B016D6B00011E
:101870004AEC03F00B0167D1200E0B016D6F0001E4
:101880004AEC03F00B015FD1600E0B016D6F00019C
:101890004AEC03F00B0157D195EC07F00B0153D143
:1018A000010E0B016B6F00018ADC9151912B036AD1
:1018B000550FE96E000E0320EA6EEF6A0B0143D16B
:1018C000020E0B016B6F00017ADC9151912B036AC0
:1018D000550FE96E000E0320EA6E010EEF6E0B014C
:1018E00032D1040E0B016B6F000169DC9151912B19
:1018F000036A550FE96E000E0320EA6E020EEF6ECA
:101900000B0121D1080E0B016B6F000158DC9151C6
:10191000912B036A550FE96E000E0320EA6E030E49
:10192000EF6E0B0110D19151912B036A550FE96EA7
:10193000000E0320EA6E70CFEFFF9151912B036AE6
:10194000550FE96E000E0320EA6E71CFEFFF915143
:10195000912B036A550FE96E000E0320EA6E72CFD9
:10196000EFFF0B01F0D0FF000B01EDD09151912B57
:10197000036A550FE96E000E0320EA6E480EEF6E03
:101980009151912B036A550FE96E000E0320EA6E08
:10199000340EEF6E9151912B036A550FE96E000ED4
:1019A0000320EA6E2E0EEF6E9151912B036A550FB4
:1019B000E96E000E0320EA6E300EEF6E0B01C3D00D
:1019C0009151912B036A550FE96E000E0320EA6EC8
:1019D000580EEF6E9151912B036A550FE96E000E70
:1019E0000320EA6E340EEF6E9151912B036A550F6E
:1019F000E96E000E0320EA6E2E0EEF6E9151912BD0
:101A0000036A550FE96E000E0320EA6E310EEF6E89
:101A10000B0199D0800E0B016D6F00014AEC03F0B1
:101A20001AC067FB1BC068FB1CC069FB67CB6BFB64
:101A300068CB6CFB69CB6DFB3BEC05F0AA6A020E30
:101A4000A96E67CBA8FFA69CA69EA684F2CF00F045
:101A5000F29E0F01550EA76EAA0EA76EA682A6B221
:101A6000FED7A6940050F212AA6A030EA96E68CBA4
:101A7000A8FFA69CA69EA684F2CF00F0F29E550E6B
:101A8000A76EAA0EA76EA682A6B2FED7A694005095
:101A9000F212AA6A030EA96E69CBA8FFA69CA69EA5
:101AA000A684F2CF00F0F29E550EA76EAA0EA76E86
:101AB000A682A6B2FED7A6940050F212AA6A010E20
:101AC000A96EAA0EA86EA69CA69EA684F2CF00F0D0
:101AD000F29E550EA76EAA0EA76EA682A6B2FED7DC
:101AE000A6940050F2120B016D6B00014AEC03F05A
:101AF0000B0129D0F2CF6BFBF29EAA6A010EA96EF0
:101B0000A69CA69EA680A8500B016BBFF28E6A6FA2
:101B10006A51AA080CE100019151912B036A550FFB
:101B2000E96E000E0320EA6E010EEF6E0AD000018E
:101B30009151912B036A550FE96E000E0320EA6E56
:101B4000EF6A0B0100D0000136EC09F002EC07F05F
:101B50000CEF0EF0F2CF0EF0F29EE824790FF66E45
:101B60001B0EF76ED8B0F72A0A00F550FA6E08007F
:101B7000F5500EBEF28EF96EA212BC12C412DE1225
:101B8000F81212132C1322142A152E1642176E1750
:101B90009817C217DA17461BF217FA1732184218AD
:101BA000461B461B461B461B461B461B461B461B2D
:101BB000461B461B461B461B4A185A186A187818BB
:101BC0008818461B9818461B461B461B461B461B7F
:101BD000461B461B461B461BA018C018E2180419DA
:101BE0002619461B461B461B461B461B461B461B0F
:101BF000461B461B461B461B461B461B66196C199B
:101C0000C019141AF41A0B015F81185207E119AEBA
:101C100005D000013DEF09F042D00B0119C05DFB7A
:101C20001AC05CFB1BC05BFB1CC05AFB20C059FBED
:101C30005F9318BC5F835F9518BA5F856E50A00BE9
:101C4000000A08E0730E6A6F000174EC07F00B01E4
:101C50005F8125D0000134EC08F0FF0E0B015E6FB0
:101C60005FB35E9D5FA502D05E9700D05DCB63FB46
:101C70005CCB62FB5BCB61FB5ACB60FB656B210EDF
:101C8000646F59CB66FB5ECB67FB00013BEC08F051
:101C900001B003D00B015F9102D00B015F810B01FA
:101CA0005FA105D00001926B916B06D00B016C0E09
:101CB0006A6F000174EC07F0BCEF0FF00B012951C3
:101CC000285D3BE0F29CF29EF2BEFDD7176AF2BEA1
:101CD000178EF29E29CBAAFB0001D4EC00F017BEB0
:101CE000F28E02C05CFB01C05BFB5ACBEAFF59CB12
:101CF000E9FF5CCBE2FF5BCBE1FF120E016EE6CFAA
:101D0000EEFF012EFCD7010E0B0129255E6F176A2D
:101D1000F2BE178EF29E5ECBACFB960EAD6F00014D
:101D2000D8EC01F017BEF28E00C029FBC00EF212F3
:101D3000010E016E06D005D00B01000E016E0001F0
:101D400000D0C3EF0FF0010E0B01556F93988A98E6
:101D50000001C6EF0FF00B015B6B5C6B800E5D6FDB
:101D6000010E0001946F5ACB5FFB59CB5EFB100E46
:101D70000B016E6F0001D4EC06F0020E0B016E6FCA
:101D80000001D4EC06F0080E0B015925E96E000E97
:101D90005A21EA6EEFAC01D05D8D080E5925E96E2F
:101DA000000E5A21EA6EEFAA01D05D8B5D515C1BDB
:101DB0005D51100805E1100E6E6F0001D4EC06F0C5
:101DC0005DCB6EFB0001D4EC06F00B015B6B5B514D
:101DD000110828E35ECBE9FF5FCBEAFFEF505C1B05
:101DE0005FCB03F05ECBE9FF5FCBEAFFEF5010085B
:101DF00006E1100E6E6F0001D4EC06F00B015FCB14
:101E000003F05E515E2BD8B45F2BE96E03C0EAFF8E
:101E1000EFCF60FB60CB6EFB0001D4EC06F00B0152
:101E20005B2BD5D75C51100805E1100E6E6F0001D9
:101E3000D4EC06F05CCB6EFB0001D4EC06F0100E87
:101E40000B016E6F0001D4EC06F0030E0B016E6FF8
:101E50000001D4EC06F0946BCFEF0FF0F86AD09E3F
:101E60000D8EFE0E006E0D0E016EEA6A020EE96E18
:101E7000EF6AE92AD8B4EA2A002EFAD7012EF8D759
:101E8000EA6AE96AC150C00B0F09C16E070EB46E51
:101E9000B450A19C986B996B9A6B9B6B0B01286B50
:101EA000296B586B0001A6EF05F0630E0B01596F0B
:101EB000000158EC07F00B012AAB43D07450C00B63
:101EC000000A06E06D0E6A6F000174EC07F00B016A
:101ED00074AA06D0720E6A6F000174EC07F00B0151
:101EE00074A815D0710E6A6F000174EC07F08FECC6
:101EF00007F095EC07F0800E0B016D6F00014AECC6
:101F000003F00B016D6B00014AEC03F00B0174A6AA
:101F100006D0700E6A6F000174EC07F00B0174A418
:101F200006D06F0E6A6F000174EC07F00B0174A20B
:101F300006D06E0E6A6F000174EC07F00B012A9B4D
:101F4000A38A2AA907D06A0E596F000158EC07F03E
:101F50000B012A990001925104080BE09BEF07F056
:101F60000B012AA704D00001AAEF08F00B0105D04D
:101F70000001D7EF08F047D60B010B0E5A6F420E47
:101F8000596F00019BD601520AE0DDD636EC09F00C
:101F90000B0E0B015A6F420E596F0001DCD68BD726
:021FA00003003C
:00000001FF
;PIC18F6680

