:020000040000FA
:04000000F4EF0EF01B
:08000800056ED8CF06F0E950A7
:10001000076EEA50086EE150096EE2500A6ED95040
:100020000B6EDA500C6EF350146EF450156EE050F7
:100030000D6E000100500F6E0150106E0250116ED7
:100040000350126E0450136EF2AA2AEF00F0F2B4BD
:100050007DEF00F09DA030EF00F09EB069EF00F062
:100060009DA236EF00F09EB22DEF02F0A3AA3CEF66
:1000700000F0A4BA3AEF02F0A3A242EF00F0A4B25B
:1000800029EF02F0A3A048EF00F0A4B025EF02F0A2
:100090000F50006E1050016E1150026E1250036E20
:1000A0001350046E0D50E06E0D8E0750E96E08502F
:1000B000EA6E0950E16E0A50E26E0B50D96E0C5098
:1000C000DA6E1450F36E1550F46E055006C0D8FF6A
:1000D0001000850ECF6EED0ECE6E0501045302E0CA
:1000E000040707D0DBC404F50401D6A501D0D687E8
:1000F00005019E90000148EF00F0D76A660ED66EAB
:100100000501015303E00151010702D093988A8849
:100110000001965301E09607975301E09707050108
:10012000005302E000070DD00F0140B707D030B7F1
:1001300005D020B703D0939A8A8A02D0939A8A9ADC
:100140000501035303E00351030702D0929489840D
:10015000025302E0020706D00001945302E1929C90
:10016000898C0501928680A602D0929C899C000110
:10017000932D05D00401D6890001936B03D09353CE
:1001800001E09307F29448EF00F005014F5151034D
:10019000F3CF01F0F4CF00F05203F350002650519A
:1001A0005103F3500020026E0001000C0501515173
:1001B000016A505D03E250C500F00CD0006A080EE1
:1001C000526F503700365151005CD8B0006E013686
:1001D000522FF7D70001000CD4C44EF50501506B27
:1001E0004EC54FF5526B120E516F0001CEDF02C0AB
:1001F00003F001509C0F016E000E032203C002F0B9
:1002000002C04DF501C04CF505014C514E6F4D51EA
:100210004F6F0A0E4C25506F000E4D21516F090E85
:100220004C25526F000E4D21536F080E4C25546F14
:10023000000E4D21556F4FC557F54EC556F551C5AA
:1002400059F550C558F553C55BF552C55AF555C516
:100250005DF554C55CF55F6B60AE10D0F10E6F16A6
:100260005E81A49074AE02D05F87749E60A405D0B6
:100270006050070B5F13010E5F171DD00F0150AFC9
:1002800016D0F10E6F160A0E6F1205015E91A49240
:1002900074AC02D05F87749C0F015051070B0501AD
:1002A0005F135F51010801E35F8F05D00F01000E5E
:1002B000016E80D0050165500F0B606F60A601D004
:1002C0005F8D62A62BD05F8B6138636F6337E00E62
:1002D00063176130646F643364331F0E64176250B8
:1002E000030B63136250E00B006E003200320032E9
:1002F0001F0E00160050631356C5E9FF57C5EAFFED
:10030000EE52EE5264C5ECFFED5263C5EFFFED52C5
:1003100063CFEFFFED5264CFEFFF21D06134626F06
:1003200062376237F80E62176138616F6133070E0A
:1003300061176238006E0032070E0016005062131B
:1003400056C5E9FF57C5EAFFEE52EE52EC6AED5290
:10035000EF6AED5261C5EFFFED5262C5EFFF59C57F
:10036000EAFF58C5E9FF0F0EE26E660EE16E6051BE
:10037000016E04E0E6CFEEFF012EFCD7F10E6F1602
:10038000A4AE02D05F89A49E5EA102D0609E03D07D
:100390000F01509F05015CC5E9FF5DC5EAFF5FC520
:1003A000EFFF5AC5E9FF5BC5EAFF60C5EFFF010E2D
:1003B000016E0F01015247E0080E05014C25E96E60
:1003C000000E4D21EA6EEFB83BD0040E4C25E96ECD
:1003D000000E4D21EA6ED7C4EFFFD8C4ECFFD9C49C
:1003E000ECFFDAC4ECFFD4C44BF5010E0401D425B4
:1003F00005014F6F4FC550F53C0E516F0001D6DE21
:1004000000C0D4F40401D551D45D02E1D68BD68D61
:10041000D4C44EF50501506B4EC54FF5526B120E0C
:10042000516F0001B2DE02C003F001509C0F016E5B
:10043000000E032203C002F002C04DF501C04CF5CE
:100440000001E2D60F010001000CC6DEA49048EFC7
:1004500000F0C2DEA49248EF00F0010E0401D7279D
:10046000D8B0D82BD8B4D92BD8B4DA2B9E920001AF
:1004700048EF00F00401D68BA39AA49A000148EF3C
:1004800000F0946B956B926B92988998929A898AF6
:10049000000E946EB8EF04F06F88400E6F6E6E50D1
:1004A000E00B4008FCE119C56FFF6E50E00B050141
:1004B000195DD8B402D00001F8D76F980001000C84
:1004C000050119071A071B071C071D071939706E4C
:1004D00070367036C00E70161A5170121B35716E60
:1004E00071367136F80E71161D5171121EB501D09C
:1004F000718C1EA101D0718E1CC572FF1EA301D08C
:10050000728C0001000C050E0501296F230E286F67
:1005100027A73DD028C5E9FF29C5EAFFEF30006EC7
:10052000003200321F0E001622C5EAFF21C5E9FF86
:1005300000C0EFFF22C5EAFF21C5E9FFEFCF2CF590
:10054000010E2825E96E000E2921EA6EEF38006EB3
:100550000036E00E001600502C112E6F22C5EAFF67
:1005600021C5E9FF2EC5EFFF212BD8B4222B28C5CA
:10057000E9FF29C5EAFFEF38006E0036E00E0016ED
:1005800022C5EAFF21C5E9FF00C0EFFF81D0020EBE
:100590002825E96E000E2921EA6EEF38006E003240
:1005A000070E001622C5EAFF21C5E9FF00C0EFFFD4
:1005B00022C5EAFF21C5E9FFEFCF2CF5030E282560
:1005C000E96E000E2921EA6EEF34006E0036003627
:1005D000F80E001600502C112E6F22C5EAFF21C51F
:1005E000E9FF2EC5EFFF212BD8B4222B020E2825C0
:1005F000E96E000E2921EA6EEF34006E00360036F7
:10060000F80E00160050E00B2E6F22C5EAFF21C540
:10061000E9FF2EC5EFFF21C5E9FF22C5EAFFEF5034
:100620000809EF6E22C5EAFF21C5E9FFEFCF2CF5DF
:10063000020E2825E96E000E2921EA6EEF50030B09
:100640002C112E6F22C5EAFF21C5E9FF2EC5EFFF51
:10065000212BD8B4222B010E2825E96E000E29216A
:10066000EA6EEFCF2CF522C5EAFF21C5E9FF2CC5C4
:10067000EFFF212BD8B4222B28C5E9FF29C5EAFFBB
:10068000EFCF2CF522C5EAFF21C5E9FF2CC5EFFF0E
:100690000001000C0501195305E10F0E206F180E23
:1006A0001F6F04D00F0E206F1C0E1F6F20C522F588
:1006B0001FC521F51DC526F51CC525F51BC524F54F
:1006C0001AC523F51EC527F500011DDF000C050125
:1006D0001951000A000109E0010A0CE0030A10E0C8
:1006E000010A14E0070A18E01DD00F0E0501206F63
:1006F0001F6B1ED00F0E0501206F040E1F6F18D048
:100700000F0E0501206F080E1F6F12D00F0E05018E
:10071000206F0C0E1F6F0CD00F0E0501206F100EF6
:100720001F6F06D00F0E0501206F140E1F6F00D033
:1007300020C522F51FC521F51DC526F51CC525F5CB
:100740001BC524F51AC523F51EC527F50001DBDE00
:10075000000C93869394200E736E800E0501196F22
:1007600000019ADE0AC519F50BC51AF50CC51BF573
:100770000DC51CF50EC51DF50FC51EF5A1DE050145
:100780000F51600B606E608460CF50FF196B1D6B62
:100790001C6B1B6B1A6BF70E1E6F00017BDF010ECB
:1007A0000501196F1D6B1C6B1B6B1A6BF70E1E6F0F
:1007B000000170DF05010F51600B9F09DF0A000186
:1007C00003E0600A06E00AD0F70E0501106F116F12
:1007D0000BD0FF0E0501106F116F06D0FF0E050143
:1007E000106FF70E116F00D0196B1D6B1C6B1B6B1C
:1007F0001A6B10C51EF500016ADF010E0501196FA5
:100800001D6B1C6B1B6B1A6B10C51EF500015FDFA7
:10081000020E0501196F1D6B1C6B1B6B1A6B11C54A
:100820001EF5000154DF030E0501196F1D6B1C6BD3
:100830001B6B1A6B11C51EF5000149DF040E050183
:10084000196F1D6B1C6B1B6B1A6B11C51EF500011C
:100850003EDF050E0501196F1D6B1C6B1B6B1A6BC0
:1008600011C51EF5000133DF0501196B000114DE0F
:10087000000C17C570FF18C571FF19C572FF000C79
:10088000938281B20AD0FF0E946E929A899A0000E8
:10089000929A898A000E946EF3D7000C050EEA6EC8
:1008A0000B0EE96EEF500FE00C0E016E006A002E89
:1008B000FED7012EFBD7F70E006E002EFED70000EC
:1008C0000000EF2EF1D7000C05010A6B0A51020857
:1008D00036E3939A8A9A93988A88929C898C929408
:1008E0008984190E0B6F0001D9DF939A8A8A939835
:1008F0008A98929C898C92948984190E05010B6FB9
:100900000001CCDF939A8A8A93988A88929C899C6A
:1009100092948984190E05010B6F0001BFDF939A31
:100920008A8A93988A88929C898C92948994190EC9
:1009300005010B6F0001B2DF05010A2BC7D79294A6
:1009400089840001AEEF05F0936B0401D699F29C07
:10095000F29EF2BEFDD793948A8493988A98939AD4
:100960008A9A92948994929C899CD190000189D50D
:10097000F19EF2CF0AF5F29E010EA96EA69CA69EEC
:10098000A680A85005010ABFF28E066F0651AA087C
:1009900040E1040E0A6F0B6F080E0C6F0D6F030E13
:1009A0000E6F010E0F6F0001D4DE800E0501196F6E
:1009B000000172DDF2CF0AF5F29E020EA96EA69C2E
:1009C000A69EA680A85005010ABFF28E076FF2CF3F
:1009D0000AF5F29E030EA96EA69CA69EA680A850BC
:1009E0000ABFF28E086FF2CF0AF5F29E040EA96ECE
:1009F000A69CA69EA680A8500ABFF28E096F07C5C6
:100A000017F508C518F509C519F5000132DF3CD006
:100A10000501F2CF0AF5F29EA96AA69CA69EA680C1
:100A2000A8500ABFF28E056F052D01D020D00551C8
:100A300002081DE0055104081AE00551080817E0F6
:100A4000040E056FA96A05C5A8FFA69CA69EA684EC
:100A5000F2CF00F0F29E0F01550EA76EAA0EA76E00
:100A6000A682A6B2FED7A6940050F2120501040E8B
:100A70000A6F05C50BF5080E0C6F0D6F030E0E6F98
:100A8000010E0F6F000165DEA390A392A39A800E62
:100A90000501196F000100DD93988A880501196B23
:100AA0001D6B1C6B1B6B1A6BF70E1E6F0001F2DDCA
:100AB000010E0501196F1D6B1C6B1B6B1A6BF70E7A
:100AC0001E6F0001E7DD0501196B1D6B1C6B1B6BB5
:100AD0001A6BFF0E1E6F0001FADD010E0501196F82
:100AE0001D6B1C6B1B6B1A6BF70E1E6F0001EFDD8D
:100AF000020E0501196F1D6B1C6B1B6B1A6BFF0E31
:100B00001E6F0001E4DD030E0501196F1D6B1C6BE8
:100B10001B6B1A6BFF0E1E6F0001D9DD040E050161
:100B2000196F1D6B1C6B1B6B1A6BF70E1E6F000190
:100B3000CEDD050E0501196F1D6B1C6B1B6B1A6B4F
:100B4000F70E1E6F0001C3DD0501196B0001A4DC67
:100B5000939A8A8A95DE92948984B6D60401DB6BD7
:100B6000D6970001966B976B0401D69BD190810EAE
:100B7000D56EB50ECD6E480E0409CA6E630ECB6EEF
:100B8000F28A9D90A380A382A38A9D82C00EF21256
:100B900000011AEF0FF005011B6B1C6B9286000E13
:100BA00080B6010E01081CE1210E006E002EFED75A
:100BB0001B2BD8B41C2B1C514D0811E2FF0A03E17A
:100BC0001B5120080CE29286000E80B6010E01082F
:100BD00006E1010E0001956F53DE0AD00501DED754
:100BE000929889881AC582FF00009298899800011E
:100BF000000C0501176B186B010E0001946F100EAD
:100C000005011A6F0001C7DF020E05011A6F00010E
:100C1000C2DF0501176B000191510501175D28E244
:100C2000036A1751550FE96E000E0320EA6EEF506C
:100C3000181B036A1751550FE96E000E0320EA6E68
:100C4000EF50100805E1100E1A6F0001A4DF050136
:100C5000036A1751550FE96E000E0320EA6EEFCFBD
:100C600019F519C51AF5000196DF0501172BD3D721
:100C70001851100804E1100E1A6F00018CDF18C51E
:100C80001AF5000188DF100E05011A6F000183DFDD
:100C9000030E05011A6F00017EDF946B000C995161
:100CA0000501055D07E100019753D8A402D00501B5
:100CB00001D010D00001936BFF0E556E800E566E62
:100CC00005C557F0030E916F94DF926B05C599F03F
:100CD000140E976F000C98510501165D08E1000194
:100CE0009653D8A402D0050102D00FD00501FF0E03
:100CF000556E800E566E16C557F0030E0001916FAB
:100D000078DF16C598F0140E966F000C0401D69586
:100D1000D6979D900001000C0F01409730972097C7
:100D20000001000C938281B294D0FF0E946E929ACF
:100D3000899A000082CF9AF0929A898A000E946E66
:100D40009251000A0AE0010A19E0030A24E0010AAC
:100D50003EE0070AD8B46ED074D09A51100807E16B
:100D6000320E936F010E926F9B6B546A06D0640E25
:100D70000501056F000193DF6CD06AD09A5102081B
:100D800003E1020E926F06D0650E0501056F0001AA
:100D900086DF5FD05DD09A51100803E1030E926F99
:100DA00015D05450542A036A180FE96E000E032020
:100DB000EA6E9AC0EFFF9A519B1B54503B0806E223
:100DC000690E0501056F00016ADF43D041D09A51D9
:100DD00003080EE19B5305E1936B040E926F39D02B
:100DE00006D0660E0501056F000159DF32D021D013
:100DF0009A51020807E1670E0501056F00014FDFF8
:100E000028D017D05450542A036A180FE96E000EE8
:100E10000320EA6E9AC0EFFF9A519B1B020E926F5D
:100E200054503B0806E2690E0501056F000137DFEB
:100E300010D00ED0680E0501056F000130DF09D01B
:100E400007D0680E0501056F000129DF02D000D030
:100E500069D788EF0FF0010E0501006F939A8A9A07
:100E60000001000C6F98F29CF29EF2BEFDD70F01BC
:100E700040B704D0F10E6F166F8617D030B705D08B
:100E8000F10E6F16060E6F1210D020B704D0F10EBF
:100E90006F166F840AD06F0E0501166F00011BDFFD
:100EA000C00EF212000E016E4BD005011351030B60
:100EB000606E13B713D00F0E226F610E216F0FC536
:100EC00026F50EC525F50DC524F50CC523F5F70E41
:100ED000276F000183EC02F012D005010F0E226F84
:100EE000610E216F0FC526F50EC525F50DC524F53C
:100EF0000CC523F5FF0E276F000183EC02F012C52D
:100F000065FF050113BD01D0658C0F0E156F660ED0
:100F1000146F15C5EAFF14C5E9FF11C5E2FF10C53E
:100F2000E1FF1251016E04E0E6CFEEFF012EFCD787
:100F30006086F10E6F16C00EF212010E016E0001F6
:100F4000000C6E50A00B000A03E00401D69727D0D6
:100F5000FC0E0501056F0401DFAF04D00501059704
:100F600000D00401DFAD02D00501059D000173DF53
:100F7000DFC40FF5DEC40EF5DDC40DF5DCC40CF5E1
:100F8000040E0501116FE60E106FE5C412F505C5DC
:100F900013F5000167DF012C03D00401D69700018F
:100FA0008EEF0FF0010E0501036F929489940001FA
:100FB00093EF0FF01CC51FF51BC51EF505011DA7FE
:100FC00051D019C5E9FF1AC5EAFFEF34006E0036AB
:100FD0000036F80E00161FC5EAFF1EC5E9FF00C067
:100FE000EFFF010E1E25016E000E1F21036E03C0D0
:100FF00021F519C5E9FF1AC5EAFFEF38006E003286
:10100000070E001621C5EAFF01C0E9FF00C0EFFF8F
:10101000192BD8B41A2B1FC5EAFF1EC5E9FFEFCF65
:1010200022F519C5E9FF1AC5EAFFEF38006E003254
:10103000070E001600502211246F1FC5EAFF1EC5BF
:10104000E9FF24C5EFFF020E1E25E96E000E1F21E9
:10105000EA6EEF6A030E1E25E96E000E1F21EA6E8E
:10106000EF6A97D0020E1E25016E000E1F21036E3F
:1010700003C021F519C5E9FF1AC5EAFFEF38006E74
:101080000036E00E001621C5EAFF01C0E9FF00C0EE
:10109000EFFF030E1E25016E000E1F21036E03C01D
:1010A00021F519C5E9FF1AC5EAFFEF30006E0032DD
:1010B00000321F0E001621C5EAFF01C0E9FF00C083
:1010C000EFFF192BD8B41A2B020E1E25016E000E4D
:1010D0001F21036E03C021F503C0EAFF01C0E9FF31
:1010E000EFCF22F519C5E9FF1AC5EAFFEF50030B50
:1010F0002211246F21C5EAFF01C0E9FF24C5EFFFDB
:10110000020E1E25016E000E1F21036E03C021F585
:1011100003C0EAFF01C0E9FFEFCF22F519C5E9FFDF
:101120001AC5EAFFEF50E00B006E003200320032C9
:101130001F0E001600502211256F21C5EAFF01C0C5
:10114000E9FF25C5EFFF192BD8B41A2B010E1E2578
:10115000016E000E1F21036E03C021F519C5E9FFC2
:101160001AC5EAFFEFCF22F521C5EAFF01C0E9FF6A
:1011700022C5EFFF192BD8B41A2B19C5E9FF1AC5E0
:10118000EAFFEFCF22F51FC5EAFF1EC5E9FF22C522
:10119000EFFF0001000CF2CF19F5F29EA96AA69CA0
:1011A000A69EA680A850050119BFF28E186F175190
:1011B000185D15E0A96A17C5A8FFA69CA69EA6847F
:1011C000F2CF00F0F29E0F01550EA76EAA0EA76E89
:1011D000A682A6B2FED7A6940050F2120501010E17
:1011E000A96E550EA86EA69CA69EA684F2CF00F00E
:1011F000F29E0F01550EA76EAA0EA76EA682A6B28A
:10120000FED7A6940050F212800E0501196F00015E
:101210004CEC02F0040E0501196F17C51AF5080E03
:101220001B6F1C6F030E1D6F010E1E6F000160EC23
:1012300002F00501196B00014CEC02F0000C010EEC
:101240000501026F929C899C0001000C19507F0BD4
:1012500005010C6F556A19C056F0020E0001916F1E
:1012600005010C51B90FD8B05EEF0DF0470F00012A
:1012700065EF0DF09151912B036A550FE96E000E49
:101280000320EA6ECC0EEF6E05015EEF0DF0FF005D
:1012900005015EEF0DF09151912B036A550FE96E38
:1012A000000E0320EA6E76CFEFFF05015EEF0DF032
:1012B0009151912B036A550FE96E000E0320EA6EDF
:1012C00075CFEFFF05015EEF0DF09151912B036A91
:1012D000550FE96E000E0320EA6E6ECFEFFF050199
:1012E0005EEF0DF09151912B036A550FE96E000EE0
:1012F0000320EA6E74CFEFFF05015EEF0DF00501EC
:10130000126B570E116F0401D6A103D0036AF70EBA
:1013100001D0FF0E0501186F0F0E1A6F180E196F0E
:1013200012C51CF511C51BF518C51DF5000142DEDF
:10133000100E91270501126B5B0E116F0401D6A3ED
:1013400003D0036AF70E01D0FF0E0501186F0F0ED0
:101350001A6F1C0E196F12C51CF511C51BF518C5A7
:101360001DF5000127DE0501126B5F0E116F0F01E5
:1013700001A703D0036AF70E01D0FF0E0501186F15
:101380000F0E1A6F196B12C51CF511C51BF518C588
:101390001DF500010FDE0501126B630E116F0F01C9
:1013A00005A703D0036AF70E01D0FF0E0501186FE1
:1013B0000F0E1A6F040E196F12C51CF511C51BF51F
:1013C00018C51DF50001F6DD050178D30501126B86
:1013D000570E116F0F0109A703D0036AF70E01D052
:1013E000FF0E0501186F0F0E1A6F080E196F12C548
:1013F0001CF511C51BF518C51DF50001DBDD050148
:10140000126B5B0E116F0F010DA703D0036AF70E6D
:1014100001D0FF0E0501186F0F0E1A6F0C0E196F19
:1014200012C51CF511C51BF518C51DF50001C2DD5F
:101430000501126B5F0E116F0F0111A703D0036A34
:10144000F70E01D0FF0E0501186F0F0E1A6F100E68
:10145000196F12C51CF511C51BF518C51DF5000146
:10146000A9DD0501126B630E116F0F0115A703D0E3
:10147000036AF70E01D0FF0E0501186F0F0E1A6FE9
:10148000140E196F12C51CF511C51BF518C51DF5F5
:10149000000190DD100E9127050110D31AC010F540
:1014A0001BC00FF51CC00EF51DC00DF50401D69133
:1014B0001ABED681D6A102D0F70E01D0FF0E0501CB
:1014C000186F196B10C51DF50FC51CF50EC51BF562
:1014D0000DC51AF518C51EF500014AEC03F01EC033
:1014E00010F51FC00FF520C00EF521C00DF5040149
:1014F000D6931EBED683D6A302D0F70E01D0FF0E20
:101500000501186F010E196F10C51DF50FC51CF5EB
:101510000EC51BF50DC51AF518C51EF500014AECE0
:1015200003F022C010F523C00FF524C00EF525C02E
:101530000DF522AE06D0F70E006E016A026A036A4C
:1015400001D0FF0E0501186F196B10C51DF50FC5F1
:101550001CF50EC51BF50DC51AF518C51EF50001C5
:1015600067EC03F026C010F527C00FF528C00EF574
:1015700029C00DF526AE06D0F70E006E016A026A8C
:10158000036A01D0FF0E0501186F010E196F10C517
:101590001DF50FC51CF50EC51BF50DC51AF518C5B3
:1015A0001EF5000167EC03F0050188D21AC010F5A2
:1015B0001BC00FF51CC00EF51DC00DF51AAE06D0F0
:1015C000F70E006E016A026A036A01D0FF0E050180
:1015D000186F020E196F10C51DF50FC51CF50EC54D
:1015E0001BF50DC51AF518C51EF5000167EC03F0D3
:1015F0001EC010F51FC00FF520C00EF521C00DF55F
:101600001EAE06D0F70E006E016A026A036A01D0B0
:10161000FF0E0501186F030E196F10C51DF50FC5DC
:101620001CF50EC51BF50DC51AF518C51EF50001F4
:1016300067EC03F022C010F523C00FF524C00EF5AF
:1016400025C00DF522AE06D0F70E006E016A026AC3
:10165000036A01D0FF0E0501186F040E196F10C543
:101660001DF50FC51CF50EC51BF50DC51AF518C5E2
:101670001EF5000167EC03F026C010F527C00FF53A
:1016800028C00EF529C00DF526AE06D0F70E006E67
:10169000016A026A036A01D0FF0E0501186F050E88
:1016A000196F10C51DF50FC51CF50EC51BF50DC531
:1016B0001AF518C51EF5000167EC03F00501FED10F
:1016C0009151912B036A550FE96E000E0320EA6ECB
:1016D00060BE07D00F0150AF02D0000102D0000E53
:1016E00002D0010E0F01EF6E0501E8D19151912B4F
:1016F000036A550FE96E000E0320EA6E0F0140A742
:1017000006D030A704D020A702D0000E01D0010ED1
:10171000EF6E0501D3D19151912B036A550FE96EFC
:10172000000E0320EA6E0F0140B706D030B704D098
:1017300020B702D0000E01D0010EEF6E0501BED120
:101740009151912B036A550FE96E000E0320EA6E4A
:101750006FCFEFFF0501B2D19151912B036A550F65
:10176000E96E000E0320EA6E73CFEFFF0501A6D1EC
:101770001AC0DBF40501A2D11AC0DFF41BC0DEF4ED
:101780001CC0DDF41DC0DCF41EC0E5F41FC0E6F48F
:1017900020C0E7F421C0E8F422C0E9F423C0EAF451
:1017A00024C0EBF425C0ECF426C0EDF4050186D18D
:1017B0000401D685D687CF6ADBC4CEFF9D800501A4
:1017C0007DD186EC06F0050179D1800E0501196FF7
:1017D00000014CEC02F0050171D1400E0501196FBA
:1017E00000014CEC02F0050169D10501196B000103
:1017F0004CEC02F0050162D1200E0501196F0001C9
:101800004CEC02F005015AD1600E0501196F000180
:101810004CEC02F0050152D18CEC06F005014ED1E2
:10182000010E0501176F0001B6DC9151912B036A7F
:10183000550FE96E000E0320EA6EEF6A05013ED1F6
:10184000020E0501176F0001A6DC9151912B036A6E
:10185000550FE96E000E0320EA6E010EEF6E0501D2
:101860002DD1040E0501176F000195DC9151912BCC
:10187000036A550FE96E000E0320EA6E020EEF6E4A
:1018800005011CD1080E0501176F000184DC915180
:10189000912B036A550FE96E000E0320EA6E030ECA
:1018A000EF6E05010BD19151912B036A550FE96E33
:1018B000000E0320EA6E70CFEFFF9151912B036A67
:1018C000550FE96E000E0320EA6E71CFEFFF9151C4
:1018D000912B036A550FE96E000E0320EA6E72CF5A
:1018E000EFFF0501EBD0FF000501E8D09151912BEE
:1018F000036A550FE96E000E0320EA6E480EEF6E84
:101900009151912B036A550FE96E000E0320EA6E88
:10191000330EEF6E9151912B036A550FE96E000E55
:101920000320EA6E2E0EEF6E9151912B036A550F34
:10193000E96E000E0320EA6E300EEF6E0501BED098
:101940009151912B036A550FE96E000E0320EA6E48
:10195000580EEF6E9151912B036A550FE96E000EF0
:101960000320EA6E340EEF6E9151912B036A550FEE
:10197000E96E000E0320EA6E2E0EEF6E9151912B50
:10198000036A550FE96E000E0320EA6E330EEF6E08
:10199000050194D0800E0501196F00014CEC02F096
:1019A0001AC013F51BC014F51CC015F513C517F5A7
:1019B00014C518F515C519F539EC04F0020EA96E19
:1019C00013C5A8FFA69CA69EA684F2CF00F0F29EA7
:1019D0000F01550EA76EAA0EA76EA682A6B2FED75D
:1019E000A6940050F212030EA96E14C5A8FFA69C7F
:1019F000A69EA684F2CF00F0F29E550EA76EAA0E08
:101A0000A76EA682A6B2FED7A6940050F212030ECD
:101A1000A96E15C5A8FFA69CA69EA684F2CF00F0CD
:101A2000F29E550EA76EAA0EA76EA682A6B2FED78C
:101A3000A6940050F212010EA96EAA0EA86EA69CE2
:101A4000A69EA684F2CF00F0F29E550EA76EAA0EB7
:101A5000A76EA682A6B2FED7A6940050F212050188
:101A6000196B00014CEC02F0050128D0F2CF17F5FC
:101A7000F29E010EA96EA69CA69EA680A850050106
:101A800017BFF28E166F1651AA080CE10001915192
:101A9000912B036A550FE96E000E0320EA6E010ECA
:101AA000EF6E0AD000019151912B036A550FE96E38
:101AB000000E0320EA6EEF6A050100D000011FEC62
:101AC00009F0F9EC05F0C7EF0DF0F2CF0EF0F29E41
:101AD000E824EF0FF66E1A0EF76ED8B0F72A0A0058
:101AE000F550FA6E0800F5500EBEF28EF96E7412C3
:101AF0008E129612B012CA12E412FE12CC139C146B
:101B0000AC15C016EC16161740175817BC1A7017EC
:101B10007817B017C217BC1ABC1ABC1ABC1ABC1A68
:101B2000BC1ABC1ABC1ABC1ABC1ABC1ABC1ACA17FA
:101B3000DA17EA17F8170818BC1A1818BC1ABC1AD2
:101B4000BC1ABC1ABC1ABC1ABC1ABC1ABC1A201883
:101B5000401862188418A618BC1ABC1ABC1ABC1A01
:101B6000BC1ABC1ABC1ABC1ABC1ABC1ABC1ABC1AC5
:101B7000BC1AE618EC18401994196C1A05010B816F
:101B8000185207E119AE05D0000126EF09F042D046
:101B9000050119C009F51AC008F51BC007F51CC0DE
:101BA00006F520C005F50B9318BC0B830B9518BAEE
:101BB0000B856E50A00B000A08E0730E166F000133
:101BC0006BEC06F005010B8125D000012BEC07F032
:101BD000FF0E05010A6F0BB30A9D0BA502D00A97F1
:101BE00000D009C50FF508C50EF507C50DF506C5EA
:101BF0000CF5116B210E106F05C512F50AC513F512
:101C0000000132EC07F001B003D005010B9102D0C6
:101C100005010B8105010BA105D00001926B916BB1
:101C200006D005016C0E166F00016BEC06F094EF08
:101C30000FF00401D551D45D46E0F29CF29EF2BE55
:101C4000FDD7D5C44EF50501506B4EC54FF5526B0F
:101C5000120E516F0001C5EC00F002C003F00150FC
:101C60009C0F016E000E032203C002F002C008F5B3
:101C700001C007F506C5EAFF05C5E9FF08C5E2FF93
:101C800007C5E1FF120E016EE6CFEEFF012EFCD775
:101C9000010E0401D52505010A6F176AF2BE178EE1
:101CA000F29E0AC550F53C0E516F0001D6EC00F0D3
:101CB00017BEF28E00C0D5F4C00EF212010E016EF6
:101CC00006D005D00401000E016E000100D09CEF8B
:101CD0000FF0010E0501016F93988A9800019FEFA4
:101CE0000FF00501076B086B800E096F010E0001F4
:101CF000946F06C50BF505C50AF5100E05011A6FA0
:101D00000001CBEC05F0020E05011A6F0001CBECCF
:101D100005F0080E05010525E96E000E0621EA6EA4
:101D2000EFAC01D0098D080E0525E96E000E0621E5
:101D3000EA6EEFAA01D0098B0951081B095110085E
:101D400005E1100E1A6F0001CBEC05F009C51AF57C
:101D50000001CBEC05F00501076B0751110828E3E2
:101D60000AC5E9FF0BC5EAFFEF50081B0BC503F0DE
:101D70000AC5E9FF0BC5EAFFEF50100806E1100E97
:101D80001A6F0001CBEC05F005010BC503F00A51F9
:101D90000A2BD8B40B2BE96E03C0EAFFEFCF0CF58A
:101DA0000CC51AF50001CBEC05F00501072BD5D7C2
:101DB0000851100805E1100E1A6F0001CBEC05F078
:101DC00008C51AF50001CBEC05F0100E05011A6FDD
:101DD0000001CBEC05F0030E05011A6F0001CBECFE
:101DE00005F0946BA8EF0FF0F86AD09E0D8EFE0EF2
:101DF000006E060E016EEA6A020EE96EEF6AE92ACB
:101E0000D8B4EA2A002EFAD7012EF8D7EA6AE96A8E
:101E1000C180C182C184C196986B996B9A6B9B6B90
:101E20000401D46BD56B0501046B0401D69D000140
:101E3000A4EF04F0630E0501056F00014FEC06F0FE
:101E40000401D6AB55D0D6AD08D06D0E0501166F86
:101E500000016BEC06F00401D69D7450C00B000A23
:101E600009E0749E749C6D0E0501166F00016BEC09
:101E700006F0040174AA07D0720E0501166F000166
:101E80006BEC06F0040174A816D0710E0501166FF4
:101E900000016BEC06F086EC06F08CEC06F0800E90
:101EA0000501196F00014CEC02F00501196B0001EE
:101EB0004CEC02F0040174A607D0700E0501166FF9
:101EC00000016BEC06F0040174A407D06F0E05014D
:101ED000166F00016BEC06F0040174A207D06E0EC1
:101EE0000501166F00016BEC06F00401D69BA38A76
:101EF000D6A908D06A0E0501056F00014FEC06F067
:101F00000401D6990001925104080BE092EF06F00B
:101F10000401D6A704D00001A1EF07F0040105D009
:101F20000001D2EF07F02AD60401040E0501066F66
:101F3000EE0E056F00017DD601520DE0CAD61FECF2
:101F400009F0040E0501066FEE0E056F0001C9D6FB
:0A1F50000401EBD7000174D7030071
:00000001FF
;PIC18F258
