:020000040000FA
:0400000082EF10F08B
:08000800056ED8CF06F0E950A7
:10001000076EEA50086EE150096EE2500A6ED95040
:100020000B6EDA500C6EF350146EF450156EE050F7
:100030000D6E000100500F6E0150106E0250116ED7
:100040000350126E0450136EF2AA2AEF00F0F2B4BD
:1000500075EF00F09DA030EF00F09EB063EF00F070
:100060009DA236EF00F09EB21EEF03F0A3A23CEF7C
:1000700000F0A4B201EF02F0A3A042EF00F0A4B0A0
:10008000E4EF00F00F50006E1050016E1150026E40
:100090001250036E1350046E0D50E06E0D8E07501B
:1000A000E96E0850EA6E0950E16E0A50E26E0B509C
:1000B000D96E0C50DA6E1450F36E1550F46E055074
:1000C00006C0D8FF1000850ECF6EED0ECE6E0B0170
:1000D000C25302E0C20705D0A1CBC2FB9CA701D04E
:1000E0009C899E90000142EF00F0D76A660ED66EA2
:1000F0000B01BF5303E0BF51BF0702D093988A881A
:100100000001965301E09607975301E097070B0112
:10011000BE5302E0BE070DD00F0140B707D030B785
:1001200005D020B703D0939A8A8A02D0939A8A9AEC
:100130000B01C15303E0C151C10702D096928D82D9
:10014000C05302E0C00706D00001945302E196902C
:100150008D800B01938281A202D096908D90000138
:10016000932D05D00B019C8B0001936B03D093530F
:1001700001E09307F29442EF00F00C010D510F03E0
:10018000F3CF01F0F4CF00F01003F35000260E512E
:100190000F03F3500020026E0001000C0C010F5100
:1001A000016A0E5D03E20ECC00F00CD0006A080E6E
:1001B000106F0E3700360F51005CD8B0006E01365C
:1001C000102FF7D70001000C9ACB0CFC0C010E6B22
:1001D0000CCC0DFC106B0E0E0F6F0001CEDF02C0B9
:1001E00003F001509C0F016E000E032203C002F0C9
:1001F00002C00BFC01C00AFC0C010A510C6F0B5130
:100200000D6F060E0A250E6F000E0B210F6F050EE7
:100210000A25106F000E0B21116F040E0A25126FB4
:10022000000E0B21136F0DCC15FC0CCC14FC0FCC65
:1002300017FC0ECC16FC11CC19FC10CC18FC13CCFE
:100240001BFC12CC1AFC1D6B60AE10D0F10E6F16A9
:100250001C81A49074AE02D01D87749E60A405D04A
:100260006050070B1D13010E1D171DD00F0150AF5D
:1002700016D0F10E6F160A0E6F120C011C91A4928B
:1002800074AC02D01D87749C0F015051070B0C01F8
:100290001D131D51010801E31D8F05D00F01000E34
:1002A000016E80D00C0165500F0B1E6F60A601D04F
:1002B0001D8D62A62BD01D8B6138216F2137E00E7A
:1002C00021176130226F223322331F0E2217625012
:1002D000030B21136250E00B006E0032003200323B
:1002E0001F0E00160050211314CCE9FF15CCEAFFB5
:1002F000EE52EE5222CCECFFED5221CCEFFFED524C
:1003000063CFEFFFED5264CFEFFF21D06134206F58
:1003100020372037F80E201761381F6F1F33070E64
:100320001F176238006E0032070E001600502013AF
:1003300014CCE9FF15CCEAFFEE52EE52EC6AED5216
:10034000EF6AED521FCCEFFFED5220CCEFFF17CC40
:10035000EAFF16CCE9FF0F0EE26E660EE16E1E514B
:10036000016E04E0E6CFEEFF012EFCD7F10E6F1612
:10037000A4AE02D01D89A49E1CA102D0609E03D011
:100380000F01509F0C011ACCE9FF1BCCEAFF1DCCDA
:10039000EFFF18CCE9FF19CCEAFF1ECCEFFF010EEE
:1003A000016E0F01015229E0040E0C010A25E96ECD
:1003B000000E0B21EA6EEFB81FD0010E0B019A253B
:1003C0000C010D6F0E6FC80E0F6F0001E7DE00C04D
:1003D0009AFB0B019B519A5D0EE19C8D9C85010E51
:1003E0009B250C010D6F0E6FC80E0F6F0001D6DE3E
:1003F00000C09BFB0B010C010F01A490000142EF18
:1004000000F09ACB0CFC0C010E6B0CCC0DFC106BAD
:100410000E0E0F6F0001B1DE02C003F001509C0F01
:10042000016E000E032203C002F002C00BFC01C0EB
:100430000AFC0C010A510C6F0B510D6F060E0A25B8
:100440000E6F000E0B210F6F050E0A25106F000EA8
:100450000B21116F040E0A25126F000E0B21136F72
:100460000DCC15FC0CCC14FC0FCC17FC0ECC16FCE0
:1004700011CC19FC10CC18FC13CC1BFC12CC1AFCB0
:100480001D6B60AE10D0F10E6F161C81A49074AE7F
:1004900002D01D87749E60A405D06050070B1D1309
:1004A000010E1D171DD00F0150AF16D0F10E6F16A3
:1004B0000A0E6F120C011C91A49274AC02D01D871D
:1004C000749C0F015051070B0C011D131D510108A5
:1004D00001E31D8F05D00F01000E016E80D00C01CD
:1004E00065500F0B1E6F60A601D01D8D62A62BD02C
:1004F0001D8B6138216F2137E00E21176130226F8B
:10050000223322331F0E22176250030B2113625035
:10051000E00B006E0032003200321F0E0016005059
:10052000211314CCE9FF15CCEAFFEE52EE5222CC97
:10053000ECFFED5221CCEFFFED5263CFEFFFED5218
:1005400064CFEFFF21D06134206F20372037F80EC1
:10055000201761381F6F1F33070E1F176238006E98
:100560000032070E00160050201314CCE9FF15CC02
:10057000EAFFEE52EE52EC6AED52EF6AED521FCCFA
:10058000EFFFED5220CCEFFF17CCEAFF16CCE9FFCE
:100590000F0EE26E660EE16E1E51016E04E0E6CFB4
:1005A000EEFF012EFCD7F10E6F16A4AE02D01D890E
:1005B000A49E1CA102D0609E03D00F01509F0C018D
:1005C0001ACCE9FF1BCCEAFF1DCCEFFF18CCE9FFEA
:1005D00019CCEAFF1ECCEFFF010E016E0F01015294
:1005E00029E0040E0C010A25E96E000E0B21EA6ECB
:1005F000EFB81FD0010E0B019A250C010D6F0E6F85
:10060000C80E0F6F0001CADD00C09AFB0B019B51A1
:100610009A5D0EE19C8D9C85010E9B250C010D6F52
:100620000E6FC80E0F6F0001B9DD00C09BFB0B0100
:100630000C010F01A492000142EF00F0010E0B012A
:100640009D27D8B09E2BD8B49F2BD8B4A02B9E92B8
:10065000000142EF00F0946B956B926B9294899439
:1006600092968986000E956E94908B809EEF05F091
:100670006F88400E6F6E6E50E00B4008FCE1D9CBE6
:100680006FFF6E50E00B0B01D95DD8B402D00001B2
:10069000F8D76F980001000C0B01D907DA07DB07C8
:1006A000DC07DD07D939706E70367036C00E7016F3
:1006B000DA517012DB35716E71367136F80E7116C3
:1006C000DD517112DEB501D0718CDEA101D0718EC9
:1006D000DCCB72FFDEA301D0728C0001000C0B0E8C
:1006E0000B01EB6FE30EEBCBE9FBE86FE7A73BD029
:1006F000E8CBE9FFE9CBEAFFEF30006E00320032D1
:100700001F0E0016E2CBEAFFE1CBE9FF00C0EFFFCE
:10071000E2CBEAFFE1CBE9FFEFCFECFB010EE825EE
:10072000E96E000EE921EA6EEF38006E0036E00E49
:1007300000160050EC11E2CBEAFFE1CBE9FFEF6ECF
:10074000E12BD8B4E22BE8CBE9FFE9CBEAFFEF38A5
:10075000006E0036E00E0016E2CBEAFFE1CBE9FFC7
:1007600000C0EFFF7BD0020EE825E96E000EE92104
:10077000EA6EEF38006E0032070E0016E2CBEAFF99
:10078000E1CBE9FF00C0EFFFE2CBEAFFE1CBE9FFFD
:10079000EFCFECFB030EE825E96E000EE921EA6ECF
:1007A000EF34006E00360036F80E00160050EC11E3
:1007B000E2CBEAFFE1CBE9FFEF6EE12BD8B4E22B0D
:1007C000020EE825E96E000EE921EA6EEF34006EB4
:1007D00000360036F80E00160050E00BE2CBEAFFC0
:1007E000E1CBE9FFEF6EE1CBE9FFE2CBEAFFEF50AF
:1007F0000809EF6EE2CBEAFFE1CBE9FFEFCFECFBBC
:10080000020EE825E96E000EE921EA6EEF50030BB7
:10081000EC11E2CBEAFFE1CBE9FFEF6EE12BD8B4BC
:10082000E22B010EE825E96E000EE921EA6EEFCF1A
:10083000ECFBE2CBEAFFE1CBE9FFECCBEFFFE12BF6
:10084000D8B4E22BE8CBE9FFE9CBEAFFEFCFECFB32
:10085000E2CBEAFFE1CBE9FFECCBEFFF0001000CBC
:100860000B01D95305E10F0EE06F180EDF6F04D0B6
:100870000F0EE06F1C0EDF6FE0CBE2FBDFCBE1FB86
:10088000DDCBE6FBDCCBE5FBDBCBE4FBDACBE3FB50
:10089000DECBE7FB000123DF000C0B01D951000A7E
:1008A000000109E0010A0CE0030A10E0010A14E06B
:1008B000070A18E01DD00F0E0B01E06FDF6B1ED092
:1008C0000F0E0B01E06F040EDF6F18D00F0E0B013F
:1008D000E06F080EDF6F12D00F0E0B01E06F0C0EF1
:1008E000DF6F0CD00F0E0B01E06F100EDF6F06D024
:1008F0000F0E0B01E06F140EDF6F00D0E0CBE2FBB8
:10090000DFCBE1FBDDCBE6FBDCCBE5FBDBCBE4FBCC
:10091000DACBE3FBDECBE7FB0001E1DE000C9386E4
:100920009394200E736E800E0B01D96F0001A0DE30
:10093000C8CBD9FBC9CBDAFBCACBDBFBCBCBDCFB0F
:10094000CCCBDDFBCDCBDEFBA7DE0B01CD51600BAD
:10095000606E608460CF50FFD96BDD6BDC6BDB6B4E
:10096000DA6BF70EDE6F00017BDF010E0B01D96F32
:10097000DD6BDC6BDB6BDA6BF70EDE6F000170DFBB
:100980000B01CD51600B9F09DF0A000103E0600AF3
:1009900006E00AD0F70E0B01CE6FCF6F0BD0FF0E23
:1009A0000B01CE6FCF6F06D0FF0E0B01CE6FF70E8F
:1009B000CF6F00D0D96BDD6BDC6BDB6BDA6BCECB32
:1009C000DEFB00016ADF010E0B01D96FDD6BDC6B12
:1009D000DB6BDA6BCECBDEFB00015FDF020E0B01BF
:1009E000D96FDD6BDC6BDB6BDA6BCFCBDEFB000131
:1009F00054DF030E0B01D96FDD6BDC6BDB6BDA6B45
:100A0000CFCBDEFB000149DF040E0B01D96FDD6B9C
:100A1000DC6BDB6BDA6BCFCBDEFB00013EDF050E60
:100A20000B01D96FDD6BDC6BDB6BDA6BCFCBDEFBE5
:100A3000000133DF0B01D96B00011ADE000CD7CBAC
:100A400070FFD8CB71FFD9CB72FF000C938081B0BF
:100A50000AD0FF0E956E929689960000929689862E
:100A6000000E956EF3D7000C0B0EEA6EC90EE96E00
:100A7000EF500FE00C0E016E006A002EFED7012E23
:100A8000FBD7F70E006E002EFED700000000EF2E01
:100A9000F1D7000C0B01C86BC851020836E3939ADA
:100AA0008A9A93988A8896908D8096928D82190E54
:100AB000C96F0001D9DF939A8A8A93988A98969091
:100AC0008D8096928D82190E0B01C96F0001CCDFCB
:100AD000939A8A8A93988A8896908D9096928D821E
:100AE000190E0B01C96F0001BFDF939A8A8A939890
:100AF0008A8896908D8096928D92190E0B01C96FFF
:100B00000001B2DF0B01C82BC7D796928D8200017E
:100B10009AEF06F0936B0B019C9BF29CF29EF2BE47
:100B2000FDD798908F8093988A98939A8A9A9692F4
:100B30008D9296908D90D19000018DD5F19EF2CF3F
:100B4000C8FBF29EAA6A010EA96EA69CA69EA6806C
:100B5000A8500B01C8BFF28EC46FC451AA0843E16C
:100B6000040EC86FC96F080ECA6FCB6F030ECC6F2F
:100B7000010ECD6F0001D3DE800E0B01D96F000195
:100B800077DDF2CFC8FBF29EAA6A020EA96EA69C80
:100B9000A69EA680A8500B01C8BFF28EC56FF2CFEB
:100BA000C8FBF29EAA6A030EA96EA69CA69EA6800A
:100BB000A850C8BFF28EC66FF2CFC8FBF29EAA6AD9
:100BC000040EA96EA69CA69EA680A850C8BFF28E51
:100BD000C76FC5CBD7FBC6CBD8FBC7CBD9FB0001B2
:100BE0002EDF3ED00B01F2CFC8FBF29EAA6AA96AA3
:100BF000A69CA69EA680A850C8BFF28EC36FC32D28
:100C000001D021D0C35102081EE0C35104081BE0EB
:100C1000C351080818E0040EC36FAA6AA96AC3CBBF
:100C2000A8FFA69CA69EA684F2CF00F0F29E0F011C
:100C3000550EA76EAA0EA76EA682A6B2FED7A694E0
:100C40000050F2120B01040EC86FC3CBC9FB080E93
:100C5000CA6FCB6F030ECC6F010ECD6F00015FDE4C
:100C6000A390A392A39A800E0B01D96F000100DD1F
:100C700093988A880B01D96BDD6BDC6BDB6BDA6BCD
:100C8000F70EDE6F0001ECDD010E0B01D96FDD6B9D
:100C9000DC6BDB6BDA6BF70EDE6F0001E1DD0B0165
:100CA000D96BDD6BDC6BDB6BDA6BFF0EDE6F00018B
:100CB000F4DD010E0B01D96FDD6BDC6BDB6BDA6BE6
:100CC000F70EDE6F0001E9DD020E0B01D96FDD6B5F
:100CD000DC6BDB6BDA6BFF0EDE6F0001DEDD030E1B
:100CE0000B01D96FDD6BDC6BDB6BDA6BFF0EDE6F3C
:100CF0000001D3DD040E0B01D96FDD6BDC6BDB6B08
:100D0000DA6BF70EDE6F0001C8DD050E0B01D96F3F
:100D1000DD6BDC6BDB6BDA6BF70EDE6F0001BDDDCC
:100D20000B01D96B0001A4DC939A8A8A8FDE96921C
:100D30008D82B0D60B01A16B9C990001966B976BCD
:100D40000B019C9DD190810ED56EB50ECD6E480ED7
:100D50000409CA6E630ECB6EF28A9D90A380A382B3
:100D6000C00EF2120001A9EF10F00B01DB6BDC6B7F
:100D70009382000E81B2010E01081CE1210E006E6B
:100D8000002EFED7DB2BD8B4DC2BDC514D0811E252
:100D9000FF0A03E1DB5120080CE29382000E81B2CE
:100DA000010E010806E1010E0001956F4FDE0AD029
:100DB0000B01DED792948984DACB83FF00009294F2
:100DC00089940001000C0B01D76BD86B010E000158
:100DD000946F100E0B01DA6F0001C7DF020E0B01DA
:100DE000DA6F0001C2DF0B01D76B000191510B01DB
:100DF000D75D28E2036AD751550FE96E000E032034
:100E0000EA6EEF50D81B036AD751550FE96E000EFA
:100E10000320EA6EEF50100805E1100EDA6F0001B2
:100E2000A4DF0B01036AD751550FE96E000E0320B2
:100E3000EA6EEFCFD9FBD9CBDAFB000196DF0B01CD
:100E4000D72BD3D7D851100804E1100EDA6F000168
:100E50008CDFD8CBDAFB000188DF100E0B01DA6FD4
:100E6000000183DF030E0B01DA6F00017EDF946B5C
:100E7000000C99510B01C35D07E100019753D8A401
:100E800002D00B0101D010D00001936BFF0E556E04
:100E9000800E566EC3CB57F0030E916F94DF926BAA
:100EA000C3CB99F0140E976F000C98510B01CC5DD9
:100EB00008E100019653D8A402D00B0102D00FD054
:100EC0000B01FF0E556E800E566ECCCB57F0030E05
:100ED0000001916F78DFCCCB98F0140E966F000C68
:100EE0000B019C979C999D900001000C0F0140976D
:100EF000309720970001000C938081B094D0FF0EB2
:100F0000956E92968996000083CF9AF09296898684
:100F1000000E956E9251000A0AE0010A19E0030AD8
:100F200024E0010A3EE0070AD8B46ED074D09A518A
:100F3000100807E1320E936F010E926F9B6B546A9B
:100F400006D0640E0B01C36F000193DF6CD06AD032
:100F50009A51020803E1020E926F06D0650E0B0152
:100F6000C36F000186DF5FD05DD09A51100803E1A6
:100F7000030E926F15D05450542A036A180FE96E6D
:100F8000000E0320EA6E9AC0EFFF9A519B1B54504B
:100F90003B0806E2690E0B01C36F00016ADF43D014
:100FA00041D09A5103080EE19B5305E1936B040E67
:100FB000926F39D006D0660E0B01C36F000159DF66
:100FC00032D021D09A51020807E1670E0B01C36F9E
:100FD00000014FDF28D017D05450542A036A180F4D
:100FE000E96E000E0320EA6E9AC0EFFF9A519B1B38
:100FF000020E926F54503B0806E2690E0B01C36F5C
:10100000000137DF10D00ED0680E0B01C36F000156
:1010100030DF09D007D0680E0B01C36F000129DF54
:1010200002D000D069D71EEF11F06F98CFCBD7FB5D
:10103000CECBD6FBCDCBD5FBCCCBD4FB0F0140B771
:1010400061D00B01D351030B0F01406F0B01D3B7DC
:1010500027D0D6390F01416F4133070E41170B01DD
:10106000D735006E00360036F80E001600500F011E
:1010700041130B01D635006E00360036F80E00160F
:101080000050E00B0F01426F42870B01D651030B5A
:101090000F014213D5CB43FFD4CB44FF18D00B0133
:1010A000D4310F01416F413341331F0E41170B0102
:1010B000D539006E0036E00E001600500F014113C6
:1010C0000B01D4390F01426F4237E00E4217D2CBE9
:1010D00045FF0B01D3BD04D00F01458D11D00B018D
:1010E0000F0EEA6E460EE96ED1CBE2FFD0CBE1FFE8
:1010F000D251016E04E0E6CFEEFF012EFCD70F01C6
:101100004087C9D030B761D00B01D351030B0F0119
:10111000306F0B01D3B727D0D6390F01316F313380
:10112000070E31170B01D735006E00360036F80E6A
:10113000001600500F0131130B01D635006E00363A
:101140000036F80E00160050E00B0F01326F3287A8
:101150000B01D651030B0F013213D5CB33FFD4CB88
:1011600034FF18D00B01D4310F01316F31333133DB
:101170001F0E31170B01D539006E0036E00E001638
:1011800000500F0131130B01D4390F01326F323788
:10119000E00E3217D2CB35FF0B01D3BD04D00F01C7
:1011A000358D11D00B010F0EEA6E360EE96ED1CBE4
:1011B000E2FFD0CBE1FFD251016E04E0E6CFEEFFBB
:1011C000012EFCD70F01308766D020B761D00B010C
:1011D000D351030B0F01206F0B01D3B727D0D639A2
:1011E0000F01216F2133070E21170B01D735006E38
:1011F00000360036F80E001600500F0121130B01C7
:10120000D635006E00360036F80E00160050E00BA2
:101210000F01226F22870B01D651030B0F012213FE
:10122000D5CB23FFD4CB24FF18D00B01D4310F0131
:10123000216F213321331F0E21170B01D539006E89
:101240000036E00E001600500F0121130B01D439B7
:101250000F01226F2237E00E2217D2CB25FF0B01A0
:10126000D3BD04D00F01258D11D00B010F0EEA6EF6
:10127000260EE96ED1CBE2FFD0CBE1FFD251016E59
:1012800004E0E6CFEEFF012EFCD70F01208703D04C
:10129000000E016E02D0010E016E0001000C6E50B6
:1012A000A00B000A03E00B019C9924D0FC0E0B015B
:1012B000C36FA5AF02D0C39700D0A5AD01D0C39D29
:1012C000010EBE6F939A8A9AA5CBCFFBA4CBCEFB1F
:1012D000A3CBCDFBA2CBCCFB0B0ED16FA80ED06F56
:1012E000A7CBD2FBC3CBD3FB00019FDE012C03D0E5
:1012F0000B019C99000124EF11F0DCCBDFFBDBCB71
:10130000DEFB0B01DDA74DD0D9CBE9FFDACBEAFF3D
:10131000EF34006E00360036F80E0016DFCBEAFF21
:10132000DECBE9FF00C0EFFF010EDE25016E000EEF
:10133000DF21E16FD9CBE9FFDACBEAFFEF38006EAE
:101340000032070E0016E1CBEAFF01C0E9FF00C042
:10135000EFFFD92BD8B4DA2BDFCBEAFFDECBE9FFE6
:10136000EFCFE2FBD9CBE9FFDACBEAFFEF38006E33
:101370000032070E00160050E211DFCBEAFFDECB91
:10138000E9FFEF6E020EDE25E96E000EDF21EA6E48
:10139000EF6A030EDE25E96E000EDF21EA6EEF6ACA
:1013A00085D0020EDE25016E000EDF21E16FD9CB64
:1013B000E9FFDACBEAFFEF38006E0036E00E0016E8
:1013C000E1CBEAFF01C0E9FF00C0EFFF030EDE251D
:1013D000016E000EDF21E16FD9CBE9FFDACBEAFF26
:1013E000EF30006E003200321F0E0016E1CBEAFF34
:1013F00001C0E9FF00C0EFFFD92BD8B4DA2B020EF1
:10140000DE25016E000EDF21E16FEA6E01C0E9FF0B
:10141000EFCFE2FBD9CBE9FFDACBEAFFEF50030BCA
:10142000E211E1CBEAFF01C0E9FFEF6E020EDE251B
:10143000016E000EDF21E16FEA6E01C0E9FFEFCF20
:10144000E2FBD9CBE9FFDACBEAFFEF50E00B006E0D
:101450000032003200321F0E00160050E211E1CBC4
:10146000EAFF01C0E9FFEF6ED92BD8B4DA2B010EE9
:10147000DE25016E000EDF21D9CBE9FFDACBEAFFD2
:10148000EFCFE2FBEA6E01C0E9FFE2CBEFFFD92B21
:10149000D8B4DA2BD9CBE9FFDACBEAFFEFCFE2FB06
:1014A000DFCBEAFFDECBE9FFE2CBEFFF0001000C70
:1014B000F2CFD9FBF29EAA6AA96AA69CA69EA68034
:1014C000A8500B01D9BFF28ED86FD751D85D16E066
:1014D000AA6AA96AD7CBA8FFA69CA69EA684F2CF2B
:1014E00000F0F29E0F01550EA76EAA0EA76EA682FF
:1014F000A6B2FED7A6940050F2120B01AA6A010E02
:10150000A96E550EA86EA69CA69EA684F2CF00F0EA
:10151000F29E0F01550EA76EAA0EA76EA682A6B266
:10152000FED7A6940050F212800E0B01D96F000175
:1015300038EC03F0040E0B01D96FD7CBDAFB080EA1
:10154000DB6FDC6F030EDD6F010EDE6F00014CEC14
:1015500003F00B01D96B000138EC03F0000C1950BB
:101560007F0B0B01CC6F556A19C056F0020E0001BB
:10157000916F0B01CC51B90FD8B0EEEF0EF0470FC1
:101580000001F7EF0EF09151912B036A550FE96EB0
:10159000000E0320EA6ECC0EEF6E0B01EEEF0EF0A4
:1015A000FF000B01EEEF0EF09151912B036A550FE6
:1015B000E96E000E0320EA6E76CFEFFF0B01EEEF2F
:1015C0000EF09151912B036A550FE96E000E032026
:1015D000EA6E75CFEFFF0B01EEEF0EF09151912BFC
:1015E000036A550FE96E000E0320EA6E6ECFEFFF1F
:1015F0000B01EEEF0EF09151912B036A550FE96E3E
:10160000000E0320EA6E74CFEFFF0B01EEEF0EF039
:101610000B01D86B570ED8CBD2FBD16F9CA103D056
:10162000036AF70E01D0FF0EDD6F0F0EDA6F180E92
:10163000D96FD2CBDCFBD1CBDBFB00015EDE100E21
:1016400091270B01D86B5B0ED8CBD2FBD16F9CA33B
:1016500003D0036AF70E01D0FF0EDD6F0F0EDA6FB5
:101660001C0ED96FD2CBDCFBD1CBDBFB000145DEFE
:101670000B01D86B5F0ED8CBD2FBD16F0F0101A746
:1016800003D0036AF70E01D0FF0E0B01D86F0F0EC7
:10169000DA6FD96BD2CBDCFBD1CBDBFBD8CBDDFB5C
:1016A00000012BDE0B01D86B630ED8CBD2FBD16FC0
:1016B0000F0105A703D0036AF70E01D0FF0E0B013F
:1016C000D86F0F0EDA6F040ED96FD2CBDCFBD1CB03
:1016D000DBFBD8CBDDFB000110DE0B017FD30B0160
:1016E000D86B570ED8CBD2FBD16F0F0109A703D00F
:1016F000036AF70E01D0FF0E0B01D86F0F0EDA6FE1
:10170000080ED96FD2CBDCFBD1CBDBFBD8CBDDFB1A
:101710000001F3DD0B01D86B5B0ED8CBD2FBD16F90
:101720000F010DA703D0036AF70E01D0FF0E0B01C6
:10173000D86F0F0EDA6F0C0ED96FD2CBDCFBD1CB8A
:10174000DBFBD8CBDDFB0001D8DD0B01D86B5F0ED6
:10175000D8CBD2FBD16F0F0111A703D0036AF70ECC
:1017600001D0FF0E0B01D86F0F0EDA6F100ED96F7C
:10177000D2CBDCFBD1CBDBFBD8CBDDFB0001BDDD6D
:101780000B01D86B630ED8CBD2FBD16F0F0115A71D
:1017900003D0036AF70E01D0FF0E0B01D86F0F0EB6
:1017A000DA6F140ED96FD2CBDCFBD1CBDBFBD8CBFD
:1017B000DDFB0001A2DD100E91270B010FD31AC033
:1017C000D0FB1BC0CFFB1CC0CEFB1DC0CDFB0B0153
:1017D0009C911ABE9C819CA102D0F70E01D0FF0EF5
:1017E000D86FD96BD0CBDDFBCFCBDCFBCECBDBFB1B
:1017F000CDCBDAFBDE6F000130EC04F01EC0D0FB75
:101800001FC0CFFB20C0CEFB21C0CDFB0B019C93A2
:101810001EBE9C839CA302D0F70E01D0FF0EDE6F8C
:10182000010ED96FD0CBDDFBCFCBDCFBCECBDBFB0E
:10183000CDCBDAFB000130EC04F022C0D0FB23C09A
:10184000CFFB24C0CEFB25C0CDFB22AE06D0F70EC9
:10185000006E016A026A036A01D0FF0E0B01D86FA5
:10186000D96BD0CBDDFBCFCBDCFBCECBDBFBCDCB49
:10187000DAFBDE6F00014DEC04F026C0D0FB27C080
:10188000CFFB28C0CEFB29C0CDFB26AE06D0F70E7D
:10189000006E016A026A036A01D0FF0E0B01D86F65
:1018A000010ED96FD0CBDDFBCFCBDCFBCECBDBFB8E
:1018B000CDCBDAFBD8CBDEFB00014DEC04F00B0105
:1018C0008DD21AC0D0FB1BC0CFFB1CC0CEFB1DC0ED
:1018D000CDFB1AAE06D0F70E006E016A026A036AEB
:1018E00001D0FF0E0B01D86F020ED96FD0CBDDFBFC
:1018F000CFCBDCFBCECBDBFBCDCBDAFBD8CBDEFB1F
:1019000000014DEC04F01EC0D0FB1FC0CFFB20C077
:10191000CEFB21C0CDFB1EAE06D0F70E006E016AD5
:10192000026A036A01D0FF0E0B01D86F030ED96F54
:10193000D0CBDDFBCFCBDCFBCECBDBFBCDCBDAFBE7
:10194000D8CBDEFB00014DEC04F022C0D0FB23C05D
:10195000CFFB24C0CEFB25C0CDFB22AE06D0F70EB8
:10196000006E016A026A036A01D0FF0E0B01D86F94
:10197000040ED96FD0CBDDFBCFCBDCFBCECBDBFBBA
:10198000CDCBDAFBD8CBDEFB00014DEC04F026C05A
:10199000D0FB27C0CFFB28C0CEFB29C0CDFB26AE95
:1019A00006D0F70E006E016A026A036A01D0FF0ECC
:1019B0000B01D86F050ED96FD0CBDDFBCFCBDCFB95
:1019C000CECBDBFBCDCBDAFBD8CBDEFB00014DEC85
:1019D00004F00B0103D29151912B036A550FE96E6C
:1019E000000E0320EA6E60BE07D00F0150AF02D098
:1019F000000102D0000E02D0010E0F01EF6E0B01AC
:101A0000EDD19151912B036A550FE96E000E032021
:101A1000EA6E0F0140A706D030A704D020A702D05D
:101A2000000E01D0010EEF6E0B01D8D19151912B18
:101A3000036A550FE96E000E0320EA6E0F0140B7EE
:101A400006D030B704D020B702D0000E01D0010E6E
:101A5000EF6E0B01C3D19151912B036A550FE96EC3
:101A6000000E0320EA6E6FCFEFFF0B01B7D191514B
:101A7000912B036A550FE96E000E0320EA6E73CFB7
:101A8000EFFF0B01ABD11AC0A1FB0B01A7D11AC00C
:101A9000A5FB1BC0A4FB1CC0A3FB1DC0A2FB1EC05A
:101AA000A7FB1FC0A8FB20C0A9FB21C0AAFB22C026
:101AB000ABFB23C0ACFB24C0ADFB25C0AEFB26C0F6
:101AC000AFFB0B018BD10B019C879C89CF6AA1CB0B
:101AD000CEFF9D8083D170EC07F00B017FD1800E8B
:101AE0000B01D96F000138EC03F00B0177D1400EE8
:101AF0000B01D96F000138EC03F00B016FD10B0122
:101B0000D96B000138EC03F00B0168D1200E0B01FA
:101B1000D96F000138EC03F00B0160D1600E0B01AE
:101B2000D96F000138EC03F00B0158D176EC07F0C7
:101B30000B0154D1010E0B01D76F0001B9DC91519B
:101B4000912B036A550FE96E000E0320EA6EEF6ACF
:101B50000B0144D1020E0B01D76F0001A9DC91519A
:101B6000912B036A550FE96E000E0320EA6E010EF9
:101B7000EF6E0B0133D1040E0B01D76F000198DC1F
:101B80009151912B036A550FE96E000E0320EA6E06
:101B9000020EEF6E0B0122D1080E0B01D76F000170
:101BA00087DC9151912B036A550FE96E000E0320DB
:101BB000EA6E030EEF6E0B0111D19151912B036A66
:101BC000550FE96E000E0320EA6E70CFEFFF9151C2
:101BD000912B036A550FE96E000E0320EA6E71CF58
:101BE000EFFF9151912B036A550FE96E000E032010
:101BF000EA6E72CFEFFF0B01F1D0FF000B01EED0C8
:101C00009151912B036A550FE96E000E0320EA6E85
:101C1000480EEF6E9151912B036A550FE96E000E3D
:101C20000320EA6E340EEF6E9151912B036A550F2B
:101C3000E96E000E0320EA6E2E0EEF6E9151912B8D
:101C4000036A550FE96E000E0320EA6E300EEF6E48
:101C50000B01C4D09151912B036A550FE96E000E10
:101C60000320EA6E580EEF6E9151912B036A550FC7
:101C7000E96E000E0320EA6E340EEF6E9151912B47
:101C8000036A550FE96E000E0320EA6E2E0EEF6E0A
:101C90009151912B036A550FE96E000E0320EA6EF5
:101CA000410EEF6E0B019AD0800E0B01D96F00012F
:101CB00038EC03F01AC0D3FB1BC0D4FB1CC0D5FB0F
:101CC000D3CBD7FBD4CBD8FBD5CBD9FB1FEC05F0BE
:101CD000AA6A020EA96ED3CBA8FFA69CA69EA684D4
:101CE000F2CF00F0F29E0F01550EA76EAA0EA76E5E
:101CF000A682A6B2FED7A6940050F212AA6A030EDC
:101D0000A96ED4CBA8FFA69CA69EA684F2CF00F015
:101D1000F29E550EA76EAA0EA76EA682A6B2FED799
:101D2000A6940050F212AA6A030EA96ED5CBA8FFA2
:101D3000A69CA69EA684F2CF00F0F29E550EA76E3A
:101D4000AA0EA76EA682A6B2FED7A6940050F212E3
:101D5000AA6A010EA96EAA0EA86EA69CA69EA684CB
:101D6000F2CF00F0F29E550EA76EAA0EA76EA682C5
:101D7000A6B2FED7A6940050F2120B01D96B000157
:101D800038EC03F00B012AD0F2CFD7FBF29EAA6AFF
:101D9000010EA96EA69CA69EA680A8500B01D7BFD7
:101DA000F28ED66FD651AA080CE100019151912B09
:101DB000036A550FE96E000E0320EA6E010EEF6E06
:101DC0000AD000019151912B036A550FE96E000E64
:101DD0000320EA6EEF6A0B0101D00B01010EC06F08
:101DE00096908D900001E3EC06F05DEF0FF0F2CFDE
:101DF0000EF0F29EE824130FF66E1E0EF76ED8B0AA
:101E0000F72A0A00F550FA6E0800F5500EBEF28E61
:101E1000F96E8615A015A815C215DC15F615101655
:101E2000DE16BE17C218D619021A2C1A561A6E1AC6
:101E3000DA1D861A8E1AC61AD61ADA1DDA1DDA1DAE
:101E4000DA1DDA1DDA1DDA1DDA1DDA1DDA1DDA1DDA
:101E5000DA1DDE1AEE1AFE1A0C1B1C1BDA1D2C1BD7
:101E6000DA1DDA1DDA1DDA1DDA1DDA1DDA1DDA1DBA
:101E7000DA1D341B541B761B981BBA1BDA1DDA1DA6
:101E8000DA1DDA1DDA1DDA1DDA1DDA1DDA1DDA1D9A
:101E9000DA1DDA1DDA1DFA1B001C541CA81C881D53
:101EA0000B01C9814E0ECB6F200ECA6F185207E18D
:101EB00019AE05D00001AFEF0AF042D00B0119C0F6
:101EC000C7FB1AC0C6FB1BC0C5FB1CC0C4FB20C09F
:101ED000C3FBC99318BCC983C99518BAC9856E508C
:101EE000A00B000A08E0730ECC6F000155EC07F060
:101EF0000B01C98125D0010EBE6F939A8A9AFF0EFD
:101F0000C86FC9B3C89DC9A502D0C89700D0C7CBB8
:101F1000CFFBC6CBCEFBC5CBCDFBC4CBCCFBD16BB3
:101F2000210ED06FC3CBD2FBC8CBD3FB000115EC85
:101F300008F001B003D00B01C99102D00B01C98197
:101F40000B01C9A105D00001926B916B06D00B016A
:101F50006C0ECC6F000155EC07F02EEF11F00B0169
:101F60009B519A5D46E0F29CF29EF2BEFDD79BCB60
:101F70000CFC0C010E6B0CCC0DFC106B0E0E0F6FDD
:101F80000001BDEC00F002C003F001509C0F016E97
:101F9000000E032203C002F002C0C6FB01C0C5FB55
:101FA000C4CBEAFFC3CBE9FFC6CBE2FFC5CBE1FF61
:101FB0000E0E016EE6CFEEFF012EFCD7010E0B01D7
:101FC0009B25C86F176AF2BE178EF29EE8CF0EFCF3
:101FD000C80E0C010F6F0001CEEC00F017BEF28EA0
:101FE00000C09BFBC00EF212010E016E06D005D0A0
:101FF0000B01000E016E000100D035EF11F00B0156
:10200000C56BC66B800EC76F010E0001946FC4CB09
:10201000C9FBC3CBC8FB100E0B01DA6F0001B5EC96
:1020200006F0020E0B01DA6F0001B5EC06F0040EAB
:102030000B01C325E96E000EC421EA6EEFAC01D09E
:10204000C78D040EC325E96E000EC421EA6EEFAA07
:1020500001D0C78BC751C61BC751100805E1100E30
:10206000DA6F0001B5EC06F0C7CBDAFB0001B5EC86
:1020700006F00B01C56BC5510D0828E3C8CBE9FF7D
:10208000C9CBEAFFEF50C61BC9CB03F0C8CBE9FFB1
:10209000C9CBEAFFEF50100806E1100EDA6F00011D
:1020A000B5EC06F00B01C9CB03F0C851C82BD8B46E
:1020B000C92BE96E03C0EAFFEFCFCAFBCACBDAFB3C
:1020C0000001B5EC06F00B01C52BD5D7C6511008A1
:1020D00005E1100EDA6F0001B5EC06F0C6CBDAFBB5
:1020E0000001B5EC06F0100E0B01DA6F0001B5EC43
:1020F00006F0030E0B01DA6F0001B5EC06F0946BED
:1021000046EF11F0F86AD09E0D8EFE0E006E0D0E99
:10211000016EEA6A020EE96EEF6AE92AD8B4EA2A89
:10212000002EFAD7012EF8D7EA6AE96AC150C00B2F
:102130000F09C16E070EB46EB450A19C986B996BD9
:102140009A6B9B6B0B019A6B9B6BC26B00018AEFC6
:1021500005F0630E0B01C36F000139EC07F07452F8
:102160005DE0010E0B01BE6F939A8A9A74BE02D095
:1021700074AC11D074AC04D0A4920F01509F0B0129
:1021800074AE02D0A490609EA49A6D0ECC6F000134
:1021900055EC07F00B019CA507D09C95770ECC6FF2
:1021A000000155EC07F00B0174AA06D0720ECC6F3B
:1021B000000155EC07F00B0174A816D0710ECC6F1E
:1021C000000155EC07F070EC07F076EC07F0800E9C
:1021D0000B01D96F000138EC03F00B01D96B000142
:1021E00038EC03F0A49A0B0174A606D0700ECC6FE5
:1021F000000155EC07F00B0174A406D06F0ECC6FF4
:10220000000155EC07F00B0174A206D06E0ECC6FE6
:10221000000155EC07F00B019C9D746A0B019CAB0F
:1022200007D06A0EC36F000139EC07F00B019C9BCD
:102230000001925104080BE07CEF07F00B019CA910
:1022400004D000014FEF09F00B0109D00001010E8D
:102250000B01C16F96928D92000122D60B010B0EDD
:10226000C46FB00EC36F00017AD6015212E0010EA6
:102270000B01BF6F93988A98010EC06F96908D9056
:102280000B0EC46FB00EC36F0001B9D60B01E7D7B8
:06229000000165D7030008
:00000001FF
;PIC18F6680
