:020000040000FA
:0400000036EF0FF0D8
:08000800056ED8CF06F0E950A7
:10001000076EEA50086EE150096EE2500A6ED95040
:100020000B6EDA500C6EF350146EF450156EE050F7
:100030000D6E000100500F6E0150106E0250116ED7
:100040000350126E0450136EF2AA2AEF00F0F2B4BD
:100050007DEF00F09DA030EF00F09EB069EF00F062
:100060009DA236EF00F09EB22DEF03F0A3AA3CEF65
:1000700000F0A4BA3AEF03F0A3A242EF00F0A4B25A
:1000800029EF03F0A3A048EF00F0A4B025EF03F0A0
:100090000F50006E1050016E1150026E1250036E20
:1000A0001350046E0D50E06E0D8E0750E96E08502F
:1000B000EA6E0950E16E0A50E26E0B50D96E0C5098
:1000C000DA6E1450F36E1550F46E055006C0D8FF6A
:1000D0001000850ECF6EED0ECE6E0501045302E0CA
:1000E000040707D0DBC404F50401D6A501D0D687E8
:1000F00005019E90000148EF00F0D76A660ED66EAB
:100100000501015303E00151010702D093988A8849
:100110000001965301E09607975301E09707050108
:10012000005302E000070DD00F0140B707D030B7F1
:1001300005D020B703D0939A8A8A02D0939A8A9ADC
:100140000501035303E00351030702D0929489840D
:10015000025302E0020706D00001945302E1929C90
:10016000898C0501928680A602D0929C899C000110
:10017000932D05D00401D6890001936B03D09353CE
:1001800001E09307F29448EF00F00501575159033D
:10019000F3CF01F0F4CF00F05A03F350002658518A
:1001A0005903F3500020026E0001000C0501586B4A
:1001B00056C557F55A6B120E596F0001E6DF02C0A3
:1001C00003F001509C0F016E000E032203C002F0E9
:1001D000000C6DC570F56CC56FF505016EA751D0AB
:1001E0006AC5E9FF6BC5EAFFEF34006E00360036E2
:1001F000F80E001670C5EAFF6FC5E9FF00C0EFFFFB
:10020000010E6F25016E000E7021036E03C072F5A2
:100210006AC5E9FF6BC5EAFFEF38006E0032070ED2
:10022000001672C5EAFF01C0E9FF00C0EFFF6A2BAC
:10023000D8B46B2B70C5EAFF6FC5E9FFEFCF73F53C
:100240006AC5E9FF6BC5EAFFEF38006E0032070EA2
:10025000001600507311756F70C5EAFF6FC5E9FF96
:1002600075C5EFFF020E6F25E96E000E7021EA6E74
:10027000EF6A030E6F25E96E000E7021EA6EEF6AD9
:1002800097D0020E6F25016E000E7021036E03C021
:1002900072F56AC5E9FF6BC5EAFFEF38006E0036FC
:1002A000E00E001672C5EAFF01C0E9FF00C0EFFFD3
:1002B000030E6F25016E000E7021036E03C072F5F0
:1002C0006AC5E9FF6BC5EAFFEF30006E003200320D
:1002D0001F0E001672C5EAFF01C0E9FF00C0EFFF64
:1002E0006A2BD8B46B2B020E6F25016E000E7021A5
:1002F000036E03C072F503C0EAFF01C0E9FFEFCF50
:1003000073F56AC5E9FF6BC5EAFFEF50030B731184
:10031000756F72C5EAFF01C0E9FF75C5EFFF020EF8
:100320006F25016E000E7021036E03C072F503C0CD
:10033000EAFF01C0E9FFEFCF73F56AC5E9FF6BC5BE
:10034000EAFFEF50E00B006E0032003200321F0E69
:10035000001600507311766F72C5EAFF01C0E9FF05
:1003600076C5EFFF6A2BD8B46B2B010E6F25016E9B
:10037000000E7021036E03C072F56AC5E9FF6BC5FC
:10038000EAFFEFCF73F572C5EAFF01C0E9FF73C55D
:10039000EFFF6A2BD8B46B2B6AC5E9FF6BC5EAFF88
:1003A000EFCF73F570C5EAFF6FC5E9FF73C5EFFFC7
:1003B0000001000C05015951016A585D03E258C55E
:1003C00000F00CD0006A080E5A6F583700365951A9
:1003D000005CD8B0006E01365A2FF7D70001000C30
:1003E000D4C456F5E3DE02C055F501C054F505014D
:1003F0005451566F5551576F0A0E5425586F000EC1
:100400005521596F090E54255A6F000E55215B6F07
:10041000080E54255C6F000E55215D6F57C55FF5C2
:1004200056C55EF559C561F558C560F55BC563F500
:100430005AC562F55DC565F55CC564F564C5E9FF3F
:1004400065C5EAFFEF6A60AE20D0F10E6F166981D4
:10045000A49074AE08D064C5E9FF65C5EAFFEF500B
:100460000809EF6E749E60A40FD064C5E9FF65C5EE
:10047000EAFF6050070BEF10EF6E64C5E9FF65C53A
:10048000EAFFEF50010BEF6E34D00F0150AF2DD0CB
:10049000F10E6F160A0E6F1205016991A49274ACE9
:1004A00008D064C5E9FF65C5EAFFEF500809EF6EA3
:1004B000749C64C5E9FF65C5EAFF0F015051070B45
:1004C000EF10EF6E65C503F0050164C5E9FF65C572
:1004D000EAFFEF50010807E364C5E9FF65C5EAFFDD
:1004E000EF508009EF6E05D00F01000E016E72D043
:1004F000050162C5E9FF63C5EAFF65500F0BEF6EAA
:1005000060A607D064C5E9FF65C5EAFFEF50400962
:10051000EF6E62A615D064C5E9FF65C5EAFFEF502E
:100520002009EF6E0F0E6B6F610E6A6F5FC56DF580
:100530005EC56CF5F70E6E6F00014BDE0DD0050148
:100540000F0E6B6F610E6A6F5FC56DF55EC56CF562
:10055000FF0E6E6F00013DDE0F0E0501686F660E27
:10056000676F666B63C503F062C5E9FF63C5EAFFA9
:10057000EF50665D19E2036A66516025016E6151B4
:10058000032203C06BF5036A66516725E96E685163
:100590000320EA6EEFCF6CF56BC5EAFF01C0E9FFFF
:1005A0006CC5EFFF662BDED7F10E6F16A4AE08D038
:1005B00064C5E9FF65C5EAFFEF501009EF6EA49E20
:1005C00069A102D0609E03D00F01509F0501010E6A
:1005D000016E0F01015237E0080E05015425E96E46
:1005E000000E5521EA6EEFB82BD0040E5425E96EAB
:1005F000000E5521EA6ED7C4EFFFD8C4ECFFD9C472
:10060000ECFFDAC4ECFFD4C453F5010E0401D42589
:100610000501576F57C558F53C0E596F0001CADEEA
:1006200000C0D4F40401D551D45D02E153C5D4F423
:10063000D4C456F50001BADD02C055F501C054F529
:100640000001D5D60F010001000CCADEA49048EFCE
:1006500000F0C6DEA49248EF00F0010E0401D72797
:10066000D8B0D82BD8B4D92BD8B4DA2B9E920001AD
:1006700048EF00F00401D68BA39AA49A000148EF3A
:1006800000F0946B956B926B92988998929A898AF4
:10069000000E946EBCEF05F06F88400E6F6E6E50CA
:1006A000E00B4008FCE119C56FFF6E50E00B05013F
:1006B000195DD8B402D00001F8D76F980001000C82
:1006C000050119071A071B071C071D071939706E4A
:1006D00070367036C00E70161A5170121B35716E5E
:1006E00071367136F80E71161D5171121EB501D09A
:1006F000718C1EA101D0718E1CC572FF1EA301D08A
:10070000728C0001000C050E0501296F230E286F65
:1007100027A73DD028C5E9FF29C5EAFFEF30006EC5
:10072000003200321F0E001622C5EAFF21C5E9FF84
:1007300000C0EFFF22C5EAFF21C5E9FFEFCF2CF58E
:10074000010E2825E96E000E2921EA6EEF38006EB1
:100750000036E00E001600502C112E6F22C5EAFF65
:1007600021C5E9FF2EC5EFFF212BD8B4222B28C5C8
:10077000E9FF29C5EAFFEF38006E0036E00E0016EB
:1007800022C5EAFF21C5E9FF00C0EFFF81D0020EBC
:100790002825E96E000E2921EA6EEF38006E00323E
:1007A000070E001622C5EAFF21C5E9FF00C0EFFFD2
:1007B00022C5EAFF21C5E9FFEFCF2CF5030E28255E
:1007C000E96E000E2921EA6EEF34006E0036003625
:1007D000F80E001600502C112E6F22C5EAFF21C51D
:1007E000E9FF2EC5EFFF212BD8B4222B020E2825BE
:1007F000E96E000E2921EA6EEF34006E00360036F5
:10080000F80E00160050E00B2E6F22C5EAFF21C53E
:10081000E9FF2EC5EFFF21C5E9FF22C5EAFFEF5032
:100820000809EF6E22C5EAFF21C5E9FFEFCF2CF5DD
:10083000020E2825E96E000E2921EA6EEF50030B07
:100840002C112E6F22C5EAFF21C5E9FF2EC5EFFF4F
:10085000212BD8B4222B010E2825E96E000E292168
:10086000EA6EEFCF2CF522C5EAFF21C5E9FF2CC5C2
:10087000EFFF212BD8B4222B28C5E9FF29C5EAFFB9
:10088000EFCF2CF522C5EAFF21C5E9FF2CC5EFFF0C
:100890000001000C0501195305E10F0E206F180E21
:1008A0001F6F04D00F0E206F1C0E1F6F20C522F586
:1008B0001FC521F51DC526F51CC525F51BC524F54D
:1008C0001AC523F51EC527F500011DDF000C050123
:1008D0001951000A000109E0010A0CE0030A10E0C6
:1008E000010A14E0070A18E01DD00F0E0501206F61
:1008F0001F6B1ED00F0E0501206F040E1F6F18D046
:100900000F0E0501206F080E1F6F12D00F0E05018C
:10091000206F0C0E1F6F0CD00F0E0501206F100EF4
:100920001F6F06D00F0E0501206F140E1F6F00D031
:1009300020C522F51FC521F51DC526F51CC525F5C9
:100940001BC524F51AC523F51EC527F50001DBDEFE
:10095000000C93869394200E736E800E0501196F20
:1009600000019ADE0AC519F50BC51AF50CC51BF571
:100970000DC51CF50EC51DF50FC51EF5A1DE050143
:100980000F51600B606E0F51100BFF0801E1608486
:1009900060CF50FF196B1D6B1C6B1B6B1A6BF70E36
:1009A0001E6F000177DF010E0501196F1D6B1C6BB7
:1009B0001B6B1A6BF70E1E6F00016CDF05010F51E8
:1009C000600B9F09DF0A000103E0600A06E00AD01D
:1009D000F70E0501106F116F0BD0FF0E0501106FA0
:1009E000116F06D0FF0E0501106FF70E116F00D0CA
:1009F000196B1D6B1C6B1B6B1A6B10C51EF5000170
:100A000066DF010E0501196F1D6B1C6B1B6B1A6BEA
:100A100010C51EF500015BDF020E0501196F1D6B8D
:100A20001C6B1B6B1A6B11C51EF5000150DF030E0A
:100A30000501196F1D6B1C6B1B6B1A6B11C51EF525
:100A4000000145DF040E0501196F1D6B1C6B1B6B4C
:100A50001A6B11C51EF500013ADF050E0501196F6D
:100A60001D6B1C6B1B6B1A6B11C51EF500012FDF74
:100A70000501196B000110DE000C17C570FF18C5C9
:100A800071FF19C572FF000C938281B20AD0FF0E6C
:100A9000946E929A899A0000929A898A000E946EB6
:100AA000F3D7000C050EEA6E0B0EE96EEF500FE067
:100AB0000C0E016E006A002EFED7012EFBD7F70E3A
:100AC000006E002EFED700000000EF2EF1D7000CC4
:100AD00005010A6B0A51020836E3939A8A9A9398A1
:100AE0008A88929C898C92948984190E0B6F0001DC
:100AF000D9DF939A8A8A93988A98929C898C929447
:100B00008984190E05010B6F0001CCDF939A8A8A44
:100B100093988A88929C899C92948984190E0501E5
:100B20000B6F0001BFDF939A8A8A93988A88929C00
:100B3000898C92948994190E05010B6F0001B2DF24
:100B400005010A2BC7D7929489840001B2EF06F001
:100B5000936B0401D699F29CF29EF2BEFDD793945A
:100B60008A8493988A98939A8A9A92948994929C68
:100B7000899CD190000185D5F19EF2CF0AF5F29EB5
:100B8000010EA96EA69CA69EA680A85005010ABFCC
:100B9000F28E066F0651AA0840E1040E0A6F0B6F31
:100BA000080E0C6F0D6F030E0E6F010E0F6F00011C
:100BB000D0DE800E0501196F00016EDDF2CF0AF55F
:100BC000F29E020EA96EA69CA69EA680A8500501C4
:100BD0000ABFF28E076FF2CF0AF5F29E030EA96EDE
:100BE000A69CA69EA680A8500ABFF28E086FF2CFE0
:100BF0000AF5F29E040EA96EA69CA69EA680A85099
:100C00000ABFF28E096F07C517F508C518F509C5A3
:100C100019F5000132DF3CD00501F2CF0AF5F29E52
:100C2000A96AA69CA69EA680A8500ABFF28E056F50
:100C3000052D01D020D0055102081DE00551040802
:100C40001AE00551080817E0040E056FA96A05C5EA
:100C5000A8FFA69CA69EA684F2CF00F0F29E0F01EC
:100C6000550EA76EAA0EA76EA682A6B2FED7A694B0
:100C70000050F2120501040E0A6F05C50BF5080EAF
:100C80000C6F0D6F030E0E6F010E0F6F000161DE12
:100C9000A390A392A39A800E0501196F0001FCDCBA
:100CA00093988A880501196B1D6B1C6B1B6B1A6B63
:100CB000F70E1E6F0001EEDD010E0501196F1D6BB1
:100CC0001C6B1B6B1A6BF70E1E6F0001E3DD050139
:100CD000196B1D6B1C6B1B6B1A6BFF0E1E6F0001DB
:100CE000F6DD010E0501196F1D6B1C6B1B6B1A6B7A
:100CF000F70E1E6F0001EBDD020E0501196F1D6B73
:100D00001C6B1B6B1A6BFF0E1E6F0001E0DD030EE8
:100D10000501196F1D6B1C6B1B6B1A6BFF0E1E6F91
:100D20000001D5DD040E0501196F1D6B1C6B1B6BDB
:100D30001A6BF70E1E6F0001CADD050E0501196F53
:100D40001D6B1C6B1B6B1A6BF70E1E6F0001BFDD5A
:100D50000501196B0001A0DC939A8A8A95DE9294B2
:100D60008984B6D60401DB6BD6970001966B976B2E
:100D70000401D69BD190810ED56EB50ECD6E480E76
:100D8000016E0409CA6E630ECB6EF28A9D90A38039
:100D9000A382A38A9D82C00EF21200015AEF0FF0C7
:100DA00005011B6B1C6B9286000E80B6010E0108BC
:100DB0001CE1210E006E002EFED71B2BD8B41C2B7D
:100DC0001C514D0811E2FF0A03E11B5120080CE2FF
:100DD0009286000E80B6010E010806E1010E0001A8
:100DE000956F52DE0AD00501DED7929889881AC520
:100DF00082FF0000929889980001000C0501176B92
:100E0000186B010E0001946F100E05011A6F00019E
:100E1000C7DF020E05011A6F0001C2DF0501176B63
:100E2000000191510501175D28E2036A1751550F22
:100E3000E96E000E0320EA6EEF50181B036A17518B
:100E4000550FE96E000E0320EA6EEF50100805E121
:100E5000100E1A6F0001A4DF0501036A1751550F28
:100E6000E96E000E0320EA6EEFCF19F519C51AF5E9
:100E7000000196DF0501172BD3D71851100804E1A4
:100E8000100E1A6F00018CDF18C51AF5000188DFFB
:100E9000100E05011A6F000183DF030E05011A6FA2
:100EA00000017EDF946B000C99510501055D07E19F
:100EB00002D000A004D0320E0001976F10D00001C4
:100EC000936BFF0E556E800E566E05C557F0030EE0
:100ED000916F94DF926B05C599F0320E976F000CFD
:100EE00098510501165D08E102D000A005D0320E30
:100EF0000001966F0FD00501FF0E556E800E566EE5
:100F000016C557F0030E0001916F78DF16C598F0F3
:100F1000320E966F000C0401D695D6979D90000175
:100F2000000C0F014097309720970001000C93822E
:100F300081B294D0FF0E946E929A899A000082CF6B
:100F40009AF0929A898A000E946E9251000A0AE0F1
:100F5000010A19E0030A24E0010A3EE0070AD8B4B6
:100F60006ED074D09A51100807E1320E936F010EC3
:100F7000926F9B6B546A06D0640E0501056F0001E9
:100F800093DF6CD06AD09A51020803E1020E926F8F
:100F900006D0650E0501056F000186DF5FD05DD0CC
:100FA0009A51100803E1030E926F15D05450542A41
:100FB000036A180FE96E000E0320EA6E9AC0EFFF75
:100FC0009A519B1B54503B0806E2690E0501056FC0
:100FD00000016ADF43D041D09A5103080EE19B53D0
:100FE00005E1936B040E926F39D006D0660E0501B1
:100FF000056F000159DF32D021D09A51020807E174
:10100000670E0501056F00014FDF28D017D054503F
:10101000542A036A180FE96E000E0320EA6E9AC084
:10102000EFFF9A519B1B020E926F54503B0806E251
:10103000690E0501056F000137DF10D00ED0680E74
:101040000501056F000130DF09D007D0680E0501EA
:10105000056F000129DF02D000D069D7BCEF0FF087
:10106000010E0501006F939A8A9A0001000C6F9897
:10107000F29CF29EF2BEFDD70F0140B704D0F10EF4
:101080006F166F8617D030B705D0F10E6F16060EAB
:101090006F1210D020B704D0F10E6F166F840AD0F3
:1010A0006F0E0501166F00011BDFC00EF212000E5D
:1010B000016E4BD005011351030B606E13B713D0B3
:1010C0000F0E226F610E216F0FC526F50EC525F597
:1010D0000DC524F50CC523F5F70E276F000183EC31
:1010E00003F012D005010F0E226F610E216F0FC5A4
:1010F00026F50EC525F50DC524F50CC523F5FF0E07
:10110000276F000183EC03F012C565FF050113BDD5
:1011100001D0658C0F0E156F660E146F15C5EAFFB2
:1011200014C5E9FF11C5E2FF10C5E1FF1251016EC0
:1011300004E0E6CFEEFF012EFCD76086F10E6F16BD
:10114000C00EF212010E016E0001000C6E50A00BD9
:10115000000A03E00401D69727D0FC0E0501056FB5
:101160000401DFAF04D00501059700D00401DFAD15
:1011700002D00501059D000173DFDFC40FF5DEC459
:101180000EF5DDC40DF5DCC40CF5040E0501116F80
:10119000E60E106FE5C412F505C513F5000167DF13
:1011A000012C03D00401D6970001C2EF0FF0010E0D
:1011B0000501036F929489940001C7EF0FF0F2CFFD
:1011C00019F5F29EA96AA69CA69EA680A8500501C4
:1011D00019BFF28E186F1751185D15E0A96A17C56F
:1011E000A8FFA69CA69EA684F2CF00F0F29E0F0157
:1011F000550EA76EAA0EA76EA682A6B2FED7A6941B
:101200000050F2120501010EA96E550EA86EA69CA3
:10121000A69EA684F2CF00F0F29E0F01550EA76E97
:10122000AA0EA76EA682A6B2FED7A6940050F2120E
:10123000800E0501196F00014CEC03F0040E05014E
:10124000196F17C51AF5080E1B6F1C6F030E1D6F63
:10125000010E1E6F000160EC03F00501196B000127
:101260004CEC03F0000C010E0501026F929C899C6E
:101270000001000C19507F0B05010C6F556A19C055
:1012800056F0020E0001916F05010C51B90FD8B054
:10129000AAEF0DF0470F0001B1EF0DF09151912B26
:1012A000036A550FE96E000E0320EA6ECC0EEF6E56
:1012B0000501AAEF0DF0FF000501AAEF0DF0915115
:1012C000912B036A550FE96E000E0320EA6E76CF6C
:1012D000EFFF0501AAEF0DF09151912B036A550F15
:1012E000E96E000E0320EA6E75CFEFFF0501AAEF4D
:1012F0000DF09151912B036A550FE96E000E0320FA
:10130000EA6E6ECFEFFF0501AAEF0DF09151912B20
:10131000036A550FE96E000E0320EA6E74CFEFFFEB
:101320000501AAEF0DF00501126B570E116F0401B4
:10133000D6A103D0036AF70E01D0FF0E0501186F86
:10134000176AF2BE178EF29E0F0E6B6F180E6A6F41
:1013500012C56DF511C56CF518C56EF50001E9EC07
:1013600000F017BEF28E100E91270501126B5B0E76
:10137000116F0401D6A303D0036AF70E01D0FF0E4C
:101380000501186F176AF2BE178EF29E0F0E6B6F73
:101390001C0E6A6F12C56DF511C56CF518C56EF59A
:1013A0000001E9EC00F017BEF28E0501126B5F0E32
:1013B000116F0F0101A703D0036AF70E01D0FF0ED2
:1013C0000501186F176AF2BE178EF29E0F0E6B6F33
:1013D0006A6B12C56DF511C56CF518C56EF5000187
:1013E000E9EC00F017BEF28E0501126B630E116F6F
:1013F0000F0105A703D0036AF70E01D0FF0E050108
:10140000186F176AF2BE178EF29E0F0E6B6F040EE6
:101410006A6F12C56DF511C56CF518C56EF5000142
:10142000E9EC00F017BEF28E050194D30501126BB2
:10143000570E116F0F0109A703D0036AF70E01D0F1
:10144000FF0E0501186F176AF2BE178EF29E0F0E7F
:101450006B6F080E6A6F12C56DF511C56CF518C576
:101460006EF50001E9EC00F017BEF28E0501126B7B
:101470005B0E116F0F010DA703D0036AF70E01D0A9
:10148000FF0E0501186F176AF2BE178EF29E0F0E3F
:101490006B6F0C0E6A6F12C56DF511C56CF518C532
:1014A0006EF50001E9EC00F017BEF28E0501126B3B
:1014B0005F0E116F0F0111A703D0036AF70E01D061
:1014C000FF0E0501186F176AF2BE178EF29E0F0EFF
:1014D0006B6F100E6A6F12C56DF511C56CF518C5EE
:1014E0006EF50001E9EC00F017BEF28E0501126BFB
:1014F000630E116F0F0115A703D0036AF70E01D019
:10150000FF0E0501186F176AF2BE178EF29E0F0EBE
:101510006B6F140E6A6F12C56DF511C56CF518C5A9
:101520006EF50001E9EC00F017BEF28E100E912767
:10153000050110D31AC010F51BC00FF51CC00EF525
:101540001DC00DF50401D6911ABED681D6A102D0D8
:10155000F70E01D0FF0E0501186F196B10C51DF5B0
:101560000FC51CF50EC51BF50DC51AF518C51EF5E2
:1015700000014AEC04F01EC010F51FC00FF520C09A
:101580000EF521C00DF50401D6931EBED683D6A359
:1015900002D0F70E01D0FF0E0501186F010E196F72
:1015A00010C51DF50FC51CF50EC51BF50DC51AF5AB
:1015B00018C51EF500014AEC04F022C010F523C046
:1015C0000FF524C00EF525C00DF522AE06D0F70E9E
:1015D000006E016A026A036A01D0FF0E0501186FEE
:1015E000196B10C51DF50FC51CF50EC51BF50DC5F6
:1015F0001AF518C51EF5000167EC04F026C010F5B9
:1016000027C00FF528C00EF529C00DF526AE06D06F
:10161000F70E006E016A026A036A01D0FF0E05012F
:10162000186F010E196F10C51DF50FC51CF50EC5FD
:101630001BF50DC51AF518C51EF5000167EC04F081
:10164000050188D21AC010F51BC00FF51CC00EF59D
:101650001DC00DF51AAE06D0F70E006E016A026AC3
:10166000036A01D0FF0E0501186F020E196F10C535
:101670001DF50FC51CF50EC51BF50DC51AF518C5D2
:101680001EF5000167EC04F01EC010F51FC00FF539
:1016900020C00EF521C00DF51EAE06D0F70E006E6F
:1016A000016A026A036A01D0FF0E0501186F030E7A
:1016B000196F10C51DF50FC51CF50EC51BF50DC521
:1016C0001AF518C51EF5000167EC04F022C010F5EC
:1016D00023C00FF524C00EF525C00DF522AE06D0AF
:1016E000F70E006E016A026A036A01D0FF0E05015F
:1016F000186F040E196F10C51DF50FC51CF50EC52A
:101700001BF50DC51AF518C51EF5000167EC04F0B0
:1017100026C010F527C00FF528C00EF529C00DF51D
:1017200026AE06D0F70E006E016A026A036A01D087
:10173000FF0E0501186F050E196F10C51DF50FC5B9
:101740001CF50EC51BF50DC51AF518C51EF50001D3
:1017500067EC04F00501FED19151912B036A550FFE
:10176000E96E000E0320EA6E60BE07D00F0150AF95
:1017700002D0000102D0000E02D0010E0F01EF6E68
:101780000501E8D19151912B036A550FE96E000EC6
:101790000320EA6E0F0140A706D030A704D020A78F
:1017A00002D0000E01D0010EEF6E0501D3D1915190
:1017B000912B036A550FE96E000E0320EA6E0F01AC
:1017C00040B706D030B704D020B702D0000E01D009
:1017D000010EEF6E0501BED19151912B036A550F99
:1017E000E96E000E0320EA6E6FCFEFFF0501B2D164
:1017F0009151912B036A550FE96E000E0320EA6E9A
:1018000073CFEFFF0501A6D11AC0DBF40501A2D109
:101810001AC0DFF41BC0DEF41CC0DDF41DC0DCF414
:101820001EC0E5F41FC0E6F420C0E7F421C0E8F4D0
:1018300022C0E9F423C0EAF424C0EBF425C0ECF4A0
:1018400026C0EDF4050186D10401D685D687CF6A7E
:10185000DBC4CEFF9D8005017DD18BEC07F0050137
:1018600079D1800E0501196F00014CEC03F00501E0
:1018700071D1400E0501196F00014CEC03F0050118
:1018800069D10501196B00014CEC03F0050162D12F
:10189000200E0501196F00014CEC03F005015AD12F
:1018A000600E0501196F00014CEC03F0050152D1E7
:1018B00091EC07F005014ED1010E0501176F0001F3
:1018C0007EDC9151912B036A550FE96E000E0320C7
:1018D000EA6EEF6A05013ED1020E0501176F0001A5
:1018E0006EDC9151912B036A550FE96E000E0320B7
:1018F000EA6E010EEF6E05012DD1040E0501176F82
:1019000000015DDC9151912B036A550FE96E000EC9
:101910000320EA6E020EEF6E05011CD1080E0501D0
:10192000176F00014CDC9151912B036A550FE96E42
:10193000000E0320EA6E030EEF6E05010BD19151EC
:10194000912B036A550FE96E000E0320EA6E70CFEB
:10195000EFFF9151912B036A550FE96E000E0320A2
:10196000EA6E71CFEFFF9151912B036A550FE96E2B
:10197000000E0320EA6E72CFEFFF0501EBD0FF00EF
:101980000501E8D09151912B036A550FE96E000EC5
:101990000320EA6E480EEF6E9151912B036A550FAA
:1019A000E96E000E0320EA6E330EEF6E9151912B1B
:1019B000036A550FE96E000E0320EA6E2E0EEF6EDD
:1019C0009151912B036A550FE96E000E0320EA6EC8
:1019D000300EEF6E0501BED09151912B036A550F69
:1019E000E96E000E0320EA6E580EEF6E9151912BB6
:1019F000036A550FE96E000E0320EA6E340EEF6E97
:101A00009151912B036A550FE96E000E0320EA6E87
:101A10002E0EEF6E9151912B036A550FE96E000E59
:101A20000320EA6E310EEF6E050194D0800E0501A1
:101A3000196F00014CEC03F01AC013F51BC014F52C
:101A40001CC015F513C517F514C518F515C519F5FE
:101A50003DEC05F0020EA96E13C5A8FFA69CA69E3C
:101A6000A684F2CF00F0F29E0F01550EA76EAA0ECB
:101A7000A76EA682A6B2FED7A6940050F212030E5D
:101A8000A96E14C5A8FFA69CA69EA684F2CF00F05E
:101A9000F29E550EA76EAA0EA76EA682A6B2FED71C
:101AA000A6940050F212030EA96E15C5A8FFA69CBD
:101AB000A69EA684F2CF00F0F29E550EA76EAA0E47
:101AC000A76EA682A6B2FED7A6940050F212010E0F
:101AD000A96EAA0EA86EA69CA69EA684F2CF00F0C0
:101AE000F29E550EA76EAA0EA76EA682A6B2FED7CC
:101AF000A6940050F2120501196B00014CEC03F0A2
:101B0000050128D0F2CF17F5F29E010EA96EA69C12
:101B1000A69EA680A850050117BFF28E166F16511B
:101B2000AA080CE100019151912B036A550FE96E4F
:101B3000000E0320EA6E010EEF6E0AD000019151F3
:101B4000912B036A550FE96E000E0320EA6EEF6ACF
:101B5000050100D0000133EC09F0FEEC06F013EFB4
:101B60000EF0F2CF0EF0F29EE824870FF66E1B0EF9
:101B7000F76ED8B0F72A0A00F550FA6E0800F55053
:101B80000EBEF28EF96E9C12B612BE12D812F2126E
:101B90000C1326132C143415441658178417AE173B
:101BA000D817F017541B0818101848185A18541B47
:101BB000541B541B541B541B541B541B541B541BAD
:101BC000541B541B541B6218721882189018A018CA
:101BD000541BB018541B541B541B541B541B541B34
:101BE000541B541B541BB818D818FA181C193E194A
:101BF000541B541B541B541B541B541B541B541B6D
:101C0000541B541B541B541B541B7E198419D81984
:101C10002C1A041B05010B81185207E119AE05D0DF
:101C200000013AEF09F042D0050119C009F51AC0C8
:101C300008F51BC007F51CC006F520C005F50B9381
:101C400018BC0B830B9518BA0B856E50A00B000ABD
:101C500008E0730E166F000170EC07F005010B81B0
:101C600025D0000130EC08F0FF0E05010A6F0BB320
:101C70000A9D0BA502D00A9700D009C50FF508C52B
:101C80000EF507C50DF506C50CF5116B210E106F8D
:101C900005C512F50AC513F5000137EC08F001B0CF
:101CA00003D005010B9102D005010B8105010BA1A9
:101CB00005D00001926B916B06D005016C0E166F7A
:101CC000000170EC07F0C8EF0FF00401D551D45DAE
:101CD0003CE0F29CF29EF2BEFDD7176AF2BE178E70
:101CE000F29ED5C456F50001D6EC00F017BEF28E78
:101CF00002C008F501C007F506C5EAFF05C5E9FF02
:101D000008C5E2FF07C5E1FF120E016EE6CFEEFF48
:101D1000012EFCD7010E0401D52505010A6F176AB3
:101D2000F2BE178EF29E0AC558F53C0E596F00019F
:101D3000DAEC01F017BEF28E00C0D5F4C00EF2123C
:101D4000010E016E06D005D00401000E016E0001E7
:101D500000D0CFEF0FF0010E0501016F93988A9824
:101D60000001D2EF0FF00501076B086B800E096FC1
:101D7000010E0001946F06C50BF505C50AF5100E9E
:101D800005011A6F0001D0EC06F0020E05011A6F72
:101D90000001D0EC06F0080E05010525E96E000EE5
:101DA0000621EA6EEFAC01D0098D080E0525E96E1B
:101DB000000E0621EA6EEFAA01D0098B0951081B1B
:101DC0000951100805E1100E1A6F0001D0EC06F061
:101DD00009C51AF50001D0EC06F00501076B0751A3
:101DE000110828E30AC5E9FF0BC5EAFFEF50081BFD
:101DF0000BC503F00AC5E9FF0BC5EAFFEF50100859
:101E000006E1100E1A6F0001D0EC06F005010BC5BB
:101E100003F00A510A2BD8B40B2BE96E03C0EAFF7A
:101E2000EFCF0CF50CC51AF50001D0EC06F005015A
:101E3000072BD5D70851100805E1100E1A6F0001C5
:101E4000D0EC06F008C51AF50001D0EC06F0100E33
:101E500005011A6F0001D0EC06F0030E05011A6FA0
:101E60000001D0EC06F0946BDBEF0FF0F86AD09E27
:101E70000D8EFE0E006E060E016EEA6A020EE96E0F
:101E8000EF6AE92AD8B4EA2A002EFAD7012EF8D749
:101E9000EA6AE96AC180C182C184C196986B996B74
:101EA0009A6B9B6B0401D46BD56B0501046B00012D
:101EB000A8EF05F0630E0501056F000154EC07F073
:101EC0000401D6AB49D07450C00B000A07E06D0E78
:101ED0000501166F000170EC07F0040174AA07D029
:101EE000720E0501166F000170EC07F0040174A872
:101EF00016D0710E0501166F000170EC07F08BEC27
:101F000007F091EC07F0800E0501196F00014CEC11
:101F100003F00501196B00014CEC03F0040174A6F9
:101F200007D0700E0501166F000170EC07F0040178
:101F300074A407D06F0E0501166F000170EC07F056
:101F4000040174A207D06E0E0501166F000170EC3B
:101F500007F00401D69BA38AD6A908D06A0E050112
:101F6000056F000154EC07F00401D699000192516D
:101F700004080BE097EF07F00401D6A704D0000196
:101F8000A6EF08F0040104D00001D7EF08F042D614
:101F9000040E0501066FEE0E056F000196D6015284
:101FA0000AE0D9D633EC09F0040E0501066FEE0EF7
:0A1FB000056F0001D8D684D70300A6
:00000001FF
;PIC18F258

