:020000040000FA
:04000000EAEF0EF025
:08000800056ED8CF06F0E950A7
:10001000076EEA50086EE150096EE2500A6ED95040
:100020000B6EDA500C6EF350146EF450156EE050F7
:100030000D6E000100500F6E0150106E0250116ED7
:100040000350126E0450136EF2AA2AEF00F0F2B4BD
:100050007BEF00F09DA030EF00F09EB069EF00F064
:100060009DA236EF00F09EB228EF02F0A3AA3CEF6B
:1000700000F0A4BA35EF02F0A3A242EF00F0A4B260
:1000800024EF02F0A3A048EF00F0A4B020EF02F0AC
:100090000F50006E1050016E1150026E1250036E20
:1000A0001350046E0D50E06E0D8E0750E96E08502F
:1000B000EA6E0950E16E0A50E26E0B50D96E0C5098
:1000C000DA6E1450F36E1550F46E055006C0D8FF6A
:1000D0001000850ECF6EED0ECE6E0B01585302E070
:1000E000580705D02FCB58FB2AA501D02A879E9010
:1000F000000148EF00F0D76A660ED66E0B0155532B
:1001000003E05551550702D093988A880001965311
:1001100001E09607975301E097070B01545302E063
:1001200054070DD00F0140B707D030B705D020B726
:1001300003D0939A8A8A02D0939A8A9A0B015753D2
:1001400003E05751570702D096928D82565302E032
:10015000560706D00001945302E196908D800B0162
:10016000938281A202D096908D900001932D05D0AC
:100170000B012A890001936B03D0935301E093078D
:10018000F29448EF00F00B01A351A503F3CF01F067
:10019000F4CF00F0A603F3500026A451A503F350BA
:1001A0000020026E0001000C0B01A551016AA45D44
:1001B00003E2A4CB00F00CD0006A080EA66FA437AF
:1001C0000036A551005CD8B0006E0136A62FF7D7D7
:1001D0000001000C28CBA2FB0B01A46BA2CBA3FB5C
:1001E000A66B120EA56F0001CEDF02C003F0015016
:1001F0009C0F016E000E032203C002F002C0A1FB9F
:1002000001C0A0FB0B01A051A26FA151A36F0A0E68
:10021000A025A46F000EA121A56F090EA025A66F31
:10022000000EA121A76F080EA025A86F000EA12126
:10023000A96FA3CBABFBA2CBAAFBA5CBADFBA4CBF9
:10024000ACFBA7CBAFFBA6CBAEFBA9CBB1FBA8CB3E
:10025000B0FBB36B60AE10D0F10E6F16B281A490FC
:1002600074AE02D0B387749E60A405D06050070BB3
:10027000B313010EB3171DD00F0150AF16D0F10EFE
:100280006F160A0E6F120B01B291A49274AC02D0D9
:10029000B387749C0F015051070B0B01B313B3517B
:1002A000010801E3B38F05D00F01000E016E80D06D
:1002B0000B0165500F0BB46F60A601D0B38D62A621
:1002C0002BD0B38B6138B76FB737E00EB7176130FB
:1002D000B86FB833B8331F0EB8176250030BB7139B
:1002E0006250E00B006E0032003200321F0E00162A
:1002F0000050B713AACBE9FFABCBEAFFEE52EE52A8
:10030000B8CBECFFED52B7CBEFFFED5263CFEFFF71
:10031000ED5264CFEFFF21D06134B66FB637B637F8
:10032000F80EB6176138B56FB533070EB5176238DA
:10033000006E0032070E00160050B613AACBE9FF7C
:10034000ABCBEAFFEE52EE52EC6AED52EF6AED52A1
:10035000B5CBEFFFED52B6CBEFFFADCBEAFFACCBA9
:10036000E9FF0F0EE26E660EE16EB451016E04E01D
:10037000E6CFEEFF012EFCD7F10E6F16A4AE02D031
:10038000B389A49EB2A102D0609E03D00F01509FFA
:100390000B01B0CBE9FFB1CBEAFFB3CBEFFFAECBA4
:1003A000E9FFAFCBEAFFB4CBEFFF010E016E0F0107
:1003B000015244E0080E0B01A025E96E000EA121B8
:1003C000EA6EEFB838D0040EA025E96E000EA12128
:1003D000EA6E2BCBEFFF2CCBECFF2DCBECFF2ECB23
:1003E000ECFF28CB9FFB010E2825A36FA3CBA4FB1A
:1003F000960EA56F0001D8DE00C028FB0B01295125
:10040000285D02E12A8B2A8D28CBA2FBA46BA2CB0C
:10041000A3FBA66B120EA56F0001B5DE02C003F0B0
:1004200001509C0F016E000E032203C002F002C0B7
:10043000A1FB01C0A0FB0001E5D60F010001000CEB
:10044000C9DEA49048EF00F0C5DEA49248EF00F0AA
:10045000010E0B012B27D8B02C2BD8B42D2BD8B4E0
:100460002E2B9E92000148EF00F00B012A8BA39ADD
:10047000A49A000148EF00F0946B956B926B9294F4
:10048000899492968986000E956E94908B80B5EF34
:1004900004F06F88400E6F6E6E50E00B4008FCE178
:1004A0006DCB6FFF6E50E00B0B016D5DD8B402D0C9
:1004B0000001F8D76F980001000C0B016D076E0763
:1004C0006F07700771076D39706E70367036C00E29
:1004D00070166E5170126F35716E71367136F80E7E
:1004E00071167151711272B501D0718C72A101D067
:1004F000718E70CB72FF72A301D0728C0001000C60
:100500000B0E0B017D6F770E7C6F7BA73DD07CCBF4
:10051000E9FF7DCBEAFFEF30006E003200321F0EA4
:10052000001676CBEAFF75CBE9FF00C0EFFF76CB74
:10053000EAFF75CBE9FFEFCF80FB010E7C25E96E6A
:10054000000E7D21EA6EEF38006E0036E00E0016D8
:1005500000508011826F76CBEAFF75CBE9FF82CB2A
:10056000EFFF752BD8B4762B7CCBE9FF7DCBEAFF70
:10057000EF38006E0036E00E001676CBEAFF75CB42
:10058000E9FF00C0EFFF81D0020E7C25E96E000E6E
:100590007D21EA6EEF38006E0032070E001676CB32
:1005A000EAFF75CBE9FF00C0EFFF76CBEAFF75CB22
:1005B000E9FFEFCF80FB030E7C25E96E000E7D2165
:1005C000EA6EEF34006E00360036F80E001600506A
:1005D0008011826F76CBEAFF75CBE9FF82CBEFFF0C
:1005E000752BD8B4762B020E7C25E96E000E7D218A
:1005F000EA6EEF34006E00360036F80E001600503A
:10060000E00B826F76CBEAFF75CBE9FF82CBEFFF81
:1006100075CBE9FF76CBEAFFEF500809EF6E76CB9A
:10062000EAFF75CBE9FFEFCF80FB020E7C25E96E78
:10063000000E7D21EA6EEF50030B8011826F76CBA6
:10064000EAFF75CBE9FF82CBEFFF752BD8B4762B91
:10065000010E7C25E96E000E7D21EA6EEFCF80FB56
:1006600076CBEAFF75CBE9FF80CBEFFF752BD8B4D3
:10067000762B7CCBE9FF7DCBEAFFEFCF80FB76CBFF
:10068000EAFF75CBE9FF80CBEFFF0001000C0B0107
:100690006D5305E10F0E746F180E736F04D00F0EBB
:1006A000746F1C0E736F74CB76FB73CB75FB71CBC1
:1006B0007AFB70CB79FB6FCB78FB6ECB77FB72CB81
:1006C0007BFB00011DDF000C0B016D51000A0001D6
:1006D00009E0010A0CE0030A10E0010A14E0070A2D
:1006E00018E01DD00F0E0B01746F736B1ED00F0E30
:1006F0000B01746F040E736F18D00F0E0B01746F23
:10070000080E736F12D00F0E0B01746F0C0E736F07
:100710000CD00F0E0B01746F100E736F06D00F0EFE
:100720000B01746F140E736F00D074CB76FB73CB18
:1007300075FB71CB7AFB70CB79FB6FCB78FB6ECB03
:1007400077FB72CB7BFB0001DBDE000C938693947E
:10075000200E736E800E0B016D6F00019ADE5ECB72
:100760006DFB5FCB6EFB60CB6FFB61CB70FB62CB35
:1007700071FB63CB72FBA1DE0B016351600B606EFA
:10078000608460CF50FF6D6B716B706B6F6B6E6BC5
:10079000F70E726F00017BDF010E0B016D6F716B45
:1007A000706B6F6B6E6BF70E726F000170DF0B0179
:1007B0006351600B9F09DF0A000103E0600A06E055
:1007C0000AD0F70E0B01646F656F0BD0FF0E0B01A3
:1007D000646F656F06D0FF0E0B01646FF70E656FD7
:1007E00000D06D6B716B706B6F6B6E6B64CB72FB5B
:1007F00000016ADF010E0B016D6F716B706B6F6B27
:100800006E6B64CB72FB00015FDF020E0B016D6F3C
:10081000716B706B6F6B6E6B65CB72FB000154DF9D
:10082000030E0B016D6F716B706B6F6B6E6B65CB35
:1008300072FB000149DF040E0B016D6F716B706B71
:100840006F6B6E6B65CB72FB00013EDF050E0B011B
:100850006D6F716B706B6F6B6E6B65CB72FB0001B4
:1008600033DF0B016D6B000114DE000C6BCB70FFEE
:100870006CCB71FF6DCB72FF000C938081B00AD0FE
:10088000FF0E956E92968996000092968986000ECC
:10089000956EF3D7000C0B0EEA6E5F0EE96EEF500B
:1008A0000FE00C0E016E006A002EFED7012EFBD762
:1008B000F70E006E002EFED700000000EF2EF1D7DD
:1008C000000C0B015E6B5E51020836E3939A8A9A24
:1008D00093988A8896908D8096928D82190E5F6F7C
:1008E0000001D9DF939A8A8A93988A9896908D808E
:1008F00096928D82190E0B015F6F0001CCDF939AE7
:100900008A8A93988A8896908D9096928D82190EF5
:100910000B015F6F0001BFDF939A8A8A93988A88E0
:1009200096908D8096928D92190E0B015F6F00014B
:10093000B2DF0B015E2BC7D796928D820001B1EF1B
:1009400005F0936B0B012A99F29CF29EF2BEFDD743
:1009500098908F8093988A98939A8A9A96928D927B
:1009600096908D90D190000187D5F19EF2CF5EFBDD
:10097000F29EAA6A010EA96EA69CA69EA680A85009
:100980000B015EBFF28E5A6F5A51AA0843E1040E62
:100990005E6F5F6F080E606F616F030E626F010E16
:1009A000636F0001D3DE800E0B016D6F000171DDFE
:1009B000F2CF5EFBF29EAA6A020EA96EA69CA69ECC
:1009C000A680A8500B015EBFF28E5B6FF2CF5EFB7C
:1009D000F29EAA6A030EA96EA69CA69EA680A850A7
:1009E0005EBFF28E5C6FF2CF5EFBF29EAA6A040ECF
:1009F000A96EA69CA69EA680A8505EBFF28E5D6FD3
:100A00005BCB6BFB5CCB6CFB5DCB6DFB00012EDF2E
:100A10003ED00B01F2CF5EFBF29EAA6AA96AA69CA9
:100A2000A69EA680A8505EBFF28E596F592D01D0A8
:100A300021D0595102081EE0595104081BE05951B8
:100A4000080818E0040E596FAA6AA96A59CBA8FFD2
:100A5000A69CA69EA684F2CF00F0F29E0F01550E32
:100A6000A76EAA0EA76EA682A6B2FED7A6940050C5
:100A7000F2120B01040E5E6F59CB5FFB080E606F24
:100A8000616F030E626F010E636F00015FDEA39062
:100A9000A392A39A800E0B016D6F0001FADC93986C
:100AA0008A880B016D6B716B706B6F6B6E6BF70EE1
:100AB000726F0001ECDD010E0B016D6F716B706BDD
:100AC0006F6B6E6BF70E726F0001E1DD0B016D6BEA
:100AD000716B706B6F6B6E6BFF0E726F0001F4DDEC
:100AE000010E0B016D6F716B706B6F6B6E6BF70EA0
:100AF000726F0001E9DD020E0B016D6F716B706B9F
:100B00006F6B6E6BFF0E726F0001DEDD030E0B016B
:100B10006D6F716B706B6F6B6E6BFF0E726F0001A0
:100B2000D3DD040E0B016D6F716B706B6F6B6E6BB1
:100B3000F70E726F0001C8DD050E0B016D6F716B52
:100B4000706B6F6B6E6BF70E726F0001BDDD0B018A
:100B50006D6B00019EDC939A8A8A8FDE96928D825D
:100B6000B0D60B012F6B2A970001966B976B0B0188
:100B70002A9BD190810ED56EB50ECD6E480E04091C
:100B8000CA6E630ECB6EF28A9D90A380A382A38A65
:100B90009D82C00EF212000112EF0FF00B016F6B7D
:100BA000706B9382000E81B2010E01081CE1210ED0
:100BB000006E002EFED76F2BD8B4702B70514D08ED
:100BC00011E2FF0A03E16F5120080CE29382000E4C
:100BD00081B2010E010806E1010E0001956F4DDEA4
:100BE0000AD00B01DED7929489846ECB83FF00007C
:100BF000929489940001000C0B016B6B6C6B010EDD
:100C00000001946F100E0B016E6F0001C7DF020E22
:100C10000B016E6F0001C2DF0B016B6B0001915184
:100C20000B016B5D28E2036A6B51550FE96E000EF4
:100C30000320EA6EEF506C1B036A6B51550FE96E8F
:100C4000000E0320EA6EEF50100805E1100E6E6FE3
:100C50000001A4DF0B01036A6B51550FE96E000E12
:100C60000320EA6EEFCF6DFB6DCB6EFB000196DFCC
:100C70000B016B2BD3D76C51100804E1100E6E6F73
:100C800000018CDF6CCB6EFB000188DF100E0B01C6
:100C90006E6F000183DF030E0B016E6F00017EDFBC
:100CA000946B000C99510B01595D07E100019753BA
:100CB000D8A402D00B0101D010D00001936BFF0E1D
:100CC000556E800E566E59CB57F0030E916F94DF20
:100CD000926B59CB99F0140E976F000C98510B0141
:100CE0006A5D08E100019653D8A402D00B0102D03E
:100CF0000FD00B01FF0E556E800E566E6ACB57F06B
:100D0000030E0001916F78DF6ACB98F0140E966F96
:100D1000000C0B012A952A979D900001000C0F01F1
:100D20004097309720970001000C938081B094D0B9
:100D3000FF0E956E92968996000083CF9AF0929658
:100D40008986000E956E9251000A0AE0010A19E0A8
:100D5000030A24E0010A3EE0070AD8B46ED074D03A
:100D60009A51100807E1320E936F010E926F9B6B40
:100D7000546A06D0640E0B01596F000193DF6CD0EA
:100D80006AD09A51020803E1020E926F06D0650EF6
:100D90000B01596F000186DF5FD05DD09A511008BA
:100DA00003E1030E926F15D05450542A036A180FB2
:100DB000E96E000E0320EA6E9AC0EFFF9A519B1B6A
:100DC00054503B0806E2690E0B01596F00016ADFBF
:100DD00043D041D09A5103080EE19B5305E1936B38
:100DE000040E926F39D006D0660E0B01596F0001C8
:100DF00059DF32D021D09A51020807E1670E0B016A
:100E0000596F00014FDF28D017D05450542A036A7D
:100E1000180FE96E000E0320EA6E9AC0EFFF9A5198
:100E20009B1B020E926F54503B0806E2690E0B01A9
:100E3000596F000137DF10D00ED0680E0B01596FCB
:100E4000000130DF09D007D0680E0B01596F000197
:100E500029DF02D000D069D778EF0FF0010E0B0127
:100E6000546F939A8A9A0001000C6F98F29CF29E3C
:100E7000F2BEFDD70F0140B704D0F10E6F166F869A
:100E800017D030B705D0F10E6F16060E6F1210D0C6
:100E900020B704D0F10E6F166F840AD06F0E0B01CD
:100EA0006A6F00011BDFC00EF212000E016E4BD004
:100EB0000B016751030B606E67B713D00F0E766F8F
:100EC000610E756F63CB7AFB62CB79FB61CB78FBEC
:100ED00060CB77FBF70E7B6F000180EC02F012D045
:100EE0000B010F0E766F610E756F63CB7AFB62CBD1
:100EF00079FB61CB78FB60CB77FBFF0E7B6F00014A
:100F000080EC02F066CB65FF0B0167BD01D0658CFC
:100F10000F0E696F660E686F69CBEAFF68CBE9FF59
:100F200065CBE2FF64CBE1FF6651016E04E0E6CFE2
:100F3000EEFF012EFCD76086F10E6F16C00EF21286
:100F4000010E016E0001000C6E50A00B000A03E0C0
:100F50000B012A9723D0FC0E0B01596F33AF02D03F
:100F6000599700D033AD01D0599D000177DF33CBC5
:100F700063FB32CB62FB31CB61FB30CB60FB0B0EF2
:100F80000B01656F3A0E646F39CB66FB59CB67FB7B
:100F900000016BDF012C03D00B012A9700017EEFCB
:100FA0000FF0010E0B01576F96928D92000183EFA7
:100FB0000FF070CB73FB6FCB72FB0B0171A751D09D
:100FC0006DCBE9FF6ECBEAFFEF34006E00360036E2
:100FD000F80E001673CBEAFF72CBE9FF00C0EFFFFB
:100FE000010E7225016E000E7321036E03C075FBA6
:100FF0006DCBE9FF6ECBEAFFEF38006E0032070ED3
:10100000001675CBEAFF01C0E9FF00C0EFFF6D2BB2
:10101000D8B46E2B73CBEAFF72CBE9FFEFCF76FB30
:101020006DCBE9FF6ECBEAFFEF38006E0032070EA2
:10103000001600507611786F73CBEAFF72CBE9FF90
:1010400078CBEFFF020E7225E96E000E7321EA6E77
:10105000EF6A030E7225E96E000E7321EA6EEF6AE5
:1010600097D0020E7225016E000E7321036E03C02D
:1010700075FB6DCBE9FF6ECBEAFFEF38006E0036F3
:10108000E00E001675CBEAFF01C0E9FF00C0EFFFDC
:10109000030E7225016E000E7321036E03C075FBF3
:1010A0006DCBE9FF6ECBEAFFEF30006E003200320D
:1010B0001F0E001675CBEAFF01C0E9FF00C0EFFF6D
:1010C0006D2BD8B46E2B020E7225016E000E7321AB
:1010D000036E03C075FB03C0EAFF01C0E9FFEFCF59
:1010E00076FB6DCBE9FF6ECBEAFFEF50030B761179
:1010F000786F75CBEAFF01C0E9FF78CBEFFF020EF6
:101100007225016E000E7321036E03C075FB03C0D0
:10111000EAFF01C0E9FFEFCF76FB6DCBE9FF6ECBB5
:10112000EAFFEF50E00B006E0032003200321F0E7B
:10113000001600507611796F75CBEAFF01C0E9FF08
:1011400079CBEFFF6D2BD8B46E2B010E7225016E9B
:10115000000E7321036E03C075FB6DCBE9FF6ECBF0
:10116000EAFFEFCF76FB75CBEAFF01C0E9FF76CB54
:10117000EFFF6D2BD8B46E2B6DCBE9FF6ECBEAFF82
:10118000EFCF76FB73CBEAFF72CBE9FF76CBEFFFB5
:101190000001000CF2CF6DFBF29EAA6AA96AA69C20
:1011A000A69EA680A8500B016DBFF28E6C6F6B518E
:1011B0006C5D16E0AA6AA96A6BCBA8FFA69CA69EE6
:1011C000A684F2CF00F0F29E0F01550EA76EAA0E74
:1011D000A76EA682A6B2FED7A6940050F2120B010B
:1011E000AA6A010EA96E550EA86EA69CA69EA6849C
:1011F000F2CF00F0F29E0F01550EA76EAA0EA76E59
:10120000A682A6B2FED7A6940050F212800E0B0161
:101210006D6F000149EC02F0040E0B016D6F6BCB9A
:101220006EFB080E6F6F706F030E716F010E726FA1
:1012300000015DEC02F00B016D6B000149EC02F066
:10124000000C010E0B01566F96908D900001000C62
:1012500019507F0B0B01606F556A19C056F0020ED2
:101260000001916F0B016051B90FD8B056EF0DF02E
:10127000470F00015DEF0DF09151912B036A550F5F
:10128000E96E000E0320EA6ECC0EEF6E0B0156EFF6
:101290000DF0FF000B0156EF0DF09151912B036AF9
:1012A000550FE96E000E0320EA6E76CFEFFF0B01BB
:1012B00056EF0DF09151912B036A550FE96E000E18
:1012C0000320EA6E75CFEFFF0B0156EF0DF0915141
:1012D000912B036A550FE96E000E0320EA6E6ECF64
:1012E000EFFF0B0156EF0DF09151912B036A550F53
:1012F000E96E000E0320EA6E74CFEFFF0B0156EF8C
:101300000DF00B01666B570E656F2AA103D0036ABF
:10131000F70E01D0FF0E716F0F0E6E6F180E6D6F0E
:1013200066CB70FB65CB6FFB000143DE100E91278F
:101330000B01666B5B0E656F2AA303D0036AF70E81
:1013400001D0FF0E716F0F0E6E6F1C0E6D6F66CBAE
:1013500070FB65CB6FFB00012CDE0B01666B5F0E33
:10136000656F0F0101A703D0036AF70E01D0FF0ECE
:101370000B016C6F0F0E6E6F6D6B66CB70FB65CBE8
:101380006FFB6CCB71FB000114DE0B01666B630E0F
:10139000656F0F0105A703D0036AF70E01D0FF0E9A
:1013A0000B016C6F0F0E6E6F040E6D6F66CB70FBD2
:1013B00065CB6FFB6CCB71FB0001FBDD0B0176D3C2
:1013C0000B01666B570E656F0F0109A703D0036A07
:1013D000F70E01D0FF0E0B016C6F0F0E6E6F080E33
:1013E0006D6F66CB70FB65CB6FFB6CCB71FB000147
:1013F000E0DD0B01666B5B0E656F0F010DA703D07F
:10140000036AF70E01D0FF0E0B016C6F0F0E6E6FAB
:101410000C0E6D6F66CB70FB65CB6FFB6CCB71FBFD
:101420000001C7DD0B01666B5F0E656F0F0111A731
:1014300003D0036AF70E01D0FF0E0B016C6F0F0E85
:101440006E6F100E6D6F66CB70FB65CB6FFB6CCB58
:1014500071FB0001AEDD0B01666B630E656F0F0162
:1014600015A703D0036AF70E01D0FF0E0B016C6FB6
:101470000F0E6E6F140E6D6F66CB70FB65CB6FFB3E
:101480006CCB71FB000195DD100E91270B010ED383
:101490001AC064FB1BC063FB1CC062FB1DC061FB68
:1014A0000B012A911ABE2A812AA102D0F70E01D07F
:1014B000FF0E726F6D6B64CB71FB63CB70FB62CB05
:1014C0006FFB61CB6EFB000147EC03F01EC064FBB9
:1014D0001FC063FB20C062FB21C061FB0B012A938C
:1014E0001EBE2A832AA302D0F70E01D0FF0E726F10
:1014F000010E6D6F64CB71FB63CB70FB62CB6FFB36
:1015000061CB6EFB000147EC03F022C064FB23C0FB
:1015100063FB24C062FB25C061FB22AE06D0F70E40
:10152000006E016A026A036A01D0FF0E0B016C6F44
:101530006D6B64CB71FB63CB70FB62CB6FFB61CBDC
:101540006EFB6CCB72FB000164EC03F026C064FB05
:1015500027C063FB28C062FB29C061FB26AE06D012
:10156000F70E006E016A026A036A01D0FF0E0B01DA
:101570006C6F010E6D6F64CB71FB63CB70FB62CB44
:101580006FFB61CB6EFB6CCB72FB000164EC03F074
:101590000B018CD21AC064FB1BC063FB1CC062FB36
:1015A0001DC061FB1AAE06D0F70E006E016A026A1A
:1015B000036A01D0FF0E0B016C6F020E6D6F64CBDE
:1015C00071FB63CB70FB62CB6FFB61CB6EFB6CCBB3
:1015D00072FB000164EC03F01EC064FB1FC063FBE0
:1015E00020C062FB21C061FB1EAE06D0F70E006E6C
:1015F000016A026A036A01D0FF0E0B016C6F030ED1
:101600006D6F64CB71FB63CB70FB62CB6FFB61CB07
:101610006EFB6CCB72FB000164EC03F022C064FB38
:1016200023C063FB24C062FB25C061FB22AE06D051
:10163000F70E006E016A026A036A01D0FF0E0B0109
:101640006C6F040E6D6F64CB71FB63CB70FB62CB70
:101650006FFB61CB6EFB6CCB72FB000164EC03F0A3
:1016600026C064FB27C063FB28C062FB29C061FB66
:1016700026AE06D0F70E006E016A026A036A01D038
:10168000FF0E0B016C6F050E6D6F64CB71FB63CBAE
:1016900070FB62CB6FFB61CB6EFB6CCB72FB00010E
:1016A00064EC03F00B0102D29151912B036A550FA8
:1016B000E96E000E0320EA6E60BE07D00F0150AF46
:1016C00002D0000102D0000E02D0010E0F01EF6E19
:1016D0000B01ECD19151912B036A550FE96E000E6D
:1016E0000320EA6E0F0140A706D030A704D020A740
:1016F00002D0000E01D0010EEF6E0B01D7D1915137
:10170000912B036A550FE96E000E0320EA6E0F015C
:1017100040B706D030B704D020B702D0000E01D0B9
:10172000010EEF6E0B01C2D19151912B036A550F3F
:10173000E96E000E0320EA6E6FCFEFFF0B01B6D10A
:101740009151912B036A550FE96E000E0320EA6E4A
:1017500073CFEFFF0B01AAD11AC02FFB0B01A6D14B
:101760001AC033FB1BC032FB1CC031FB1DC030FB59
:101770001EC039FB1FC03AFB20C03BFB21C03CFB15
:1017800022C03DFB23C03EFB24C03FFB25C040FBE5
:1017900026C041FB0B018AD10B012A852A87CF6A1B
:1017A0002FCBCEFF9D8082D189EC06F00B017ED13C
:1017B000800E0B016D6F000149EC02F00B0176D138
:1017C000400E0B016D6F000149EC02F00B016ED170
:1017D0000B016D6B000149EC02F00B0167D1200E8B
:1017E0000B016D6F000149EC02F00B015FD1600E3F
:1017F0000B016D6F000149EC02F00B0157D18FEC2A
:1018000006F00B0153D1010E0B016B6F0001C2DC1E
:101810009151912B036A550FE96E000E0320EA6E79
:10182000EF6A0B0143D1020E0B016B6F0001B2DCBA
:101830009151912B036A550FE96E000E0320EA6E59
:10184000010EEF6E0B0132D1040E0B016B6F000124
:10185000A1DC9151912B036A550FE96E000E032014
:10186000EA6E020EEF6E0B0121D1080E0B016B6FB9
:10187000000190DC9151912B036A550FE96E000E27
:101880000320EA6E030EEF6E0B0110D19151912BE4
:10189000036A550FE96E000E0320EA6E70CFEFFF6A
:1018A0009151912B036A550FE96E000E0320EA6EE9
:1018B00071CFEFFF9151912B036A550FE96E000E26
:1018C0000320EA6E72CFEFFF0B01F0D0FF000B0197
:1018D000EDD09151912B036A550FE96E000E032054
:1018E000EA6E480EEF6E9151912B036A550FE96E27
:1018F000000E0320EA6E340EEF6E9151912B036AB5
:10190000550FE96E000E0320EA6E2E0EEF6E915118
:10191000912B036A550FE96E000E0320EA6E300E1C
:10192000EF6E0B01C3D09151912B036A550FE96EF5
:10193000000E0320EA6E580EEF6E9151912B036A50
:10194000550FE96E000E0320EA6E340EEF6E9151D2
:10195000912B036A550FE96E000E0320EA6E2E0EDE
:10196000EF6E9151912B036A550FE96E000E032023
:10197000EA6E330EEF6E0B0199D0800E0B016D6F86
:10198000000149EC02F01AC067FB1BC068FB1CC0D9
:1019900069FB67CB6BFB68CB6CFB69CB6DFB36ECF3
:1019A00004F0AA6A020EA96E67CBA8FFA69CA69EA9
:1019B000A684F2CF00F0F29E0F01550EA76EAA0E7C
:1019C000A76EA682A6B2FED7A6940050F212AA6A0B
:1019D000030EA96E68CBA8FFA69CA69EA684F2CF94
:1019E00000F0F29E550EA76EAA0EA76EA682A6B2B2
:1019F000FED7A6940050F212AA6A030EA96E69CB14
:101A0000A8FFA69CA69EA684F2CF00F0F29E550EDB
:101A1000A76EAA0EA76EA682A6B2FED7A694005005
:101A2000F212AA6A010EA96EAA0EA86EA69CA69E24
:101A3000A684F2CF00F0F29E550EA76EAA0EA76EF6
:101A4000A682A6B2FED7A6940050F2120B016D6BCF
:101A5000000149EC02F00B0129D0F2CF6BFBF29EA2
:101A6000AA6A010EA96EA69CA69EA680A8500B018C
:101A70006BBFF28E6A6F6A51AA080CE100019151A6
:101A8000912B036A550FE96E000E0320EA6E010EDA
:101A9000EF6E0AD000019151912B036A550FE96E48
:101AA000000E0320EA6EEF6A0B0100D0000121EC6A
:101AB00009F0FCEC05F0BFEF0DF0F2CF0EF0F29E56
:101AC000E824DF0FF66E1A0EF76ED8B0F72A0A0078
:101AD000F550FA6E0800F5500EBEF28EF96E7812CF
:101AE00092129A12B412CE12E8120213C01390147A
:101AF0009415A816D416FE1628174017AC1A5817B6
:101B000060179817A817AC1AAC1AAC1AAC1AAC1A12
:101B1000AC1AAC1AAC1AAC1AAC1AAC1AAC1AB01794
:101B2000C017D017DE17EE17AC1AFE17AC1AAC1A96
:101B3000AC1AAC1AAC1AAC1AAC1AAC1AAC1A06181D
:101B4000261848186A188C18AC1AAC1AAC1AAC1AB9
:101B5000AC1AAC1AAC1AAC1AAC1AAC1AAC1AAC1A55
:101B6000AC1ACC18D21826197A195A1A0B015F81AF
:101B7000185207E119AE05D0000128EF09F042D054
:101B80000B0119C05DFB1AC05CFB1BC05BFB1CC0DA
:101B90005AFB20C059FB5F9318BC5F835F9518BA4E
:101BA0005F856E50A00B000A08E0730E6A6F00019B
:101BB0006EEC06F00B015F8125D000012EEC07F0E2
:101BC000FF0E0B015E6F5FB35E9D5FA502D05E9757
:101BD00000D05DCB63FB5CCB62FB5BCB61FB5ACB84
:101BE00060FB656B210E646F59CB66FB5ECB67FBB8
:101BF000000135EC07F001B003D00B015F9102D07A
:101C00000B015F810B015FA105D00001926B916B0D
:101C100006D00B016C0E6A6F00016EEC06F084EFCB
:101C20000FF00B012951285D44E0F29CF29EF2BEB8
:101C3000FDD729CBA2FBA46BA2CBA3FBA66B120EF4
:101C4000A56F0001C3EC00F002C003F001509C0F2F
:101C5000016E000E032203C002F002C05CFB01C053
:101C60005BFB5ACBEAFF59CBE9FF5CCBE2FF5BCBD6
:101C7000E1FF120E016EE6CFEEFF012EFCD7010E42
:101C80000B0129255E6F176AF2BE178EF29E5ECB9E
:101C9000A4FB960EA56F0001D4EC00F017BEF28EE7
:101CA00000C029FBC00EF212010E016E06D005D055
:101CB0000B01000E016E000100D08BEF0FF0010E42
:101CC0000B01556F93988A9800018EEF0FF00B016E
:101CD0005B6B5C6B800E5D6F010E0001946F5ACBE5
:101CE0005FFB59CB5EFB100E0B016E6F0001CEEC5B
:101CF00005F0020E0B016E6F0001CEEC05F0080E30
:101D00000B015925E96E000E5A21EA6EEFAC01D0A5
:101D10005D8D080E5925E96E000E5A21EA6EEFAA74
:101D200001D05D8B5D515C1B5D51100805E1100E0B
:101D30006E6F0001CEEC05F05DCB6EFB0001CEECCA
:101D400005F00B015B6B5B51110828E35ECBE9FFEB
:101D50005FCBEAFFEF505C1B5FCB03F05ECBE9FF8C
:101D60005FCBEAFFEF50100806E1100E6E6F000126
:101D7000CEEC05F00B015FCB03F05E515E2BD8B4C7
:101D80005F2BE96E03C0EAFFEFCF60FB60CB6EFB19
:101D90000001CEEC05F00B015B2BD5D75C51100890
:101DA00005E1100E6E6F0001CEEC05F05CCB6EFB12
:101DB0000001CEEC05F0100E0B016E6F0001CEECB1
:101DC00005F0030E0B016E6F0001CEEC05F0946B75
:101DD00097EF0FF0F86AD09E0D8EFE0E006E0D0E7E
:101DE000016EEA6A020EE96EEF6AE92AD8B4EA2ABD
:101DF000002EFAD7012EF8D7EA6AE96AC150C00B63
:101E00000F09C16E070EB46EB450A19C986B996B0C
:101E10009A6B9B6B0B01286B296B586B2A9D0001F9
:101E2000A1EF04F0630E0B01596F000152EC06F0B4
:101E30000B012AAB4ED02AAD07D06D0E6A6F0001A0
:101E40006EEC06F00B012A9D7450C00B000A08E0EE
:101E5000749E749C6D0E6A6F00016EEC06F00B01AF
:101E600074AA06D0720E6A6F00016EEC06F00B01C8
:101E700074A815D0710E6A6F00016EEC06F089EC43
:101E800006F08FEC06F0800E0B016D6F000149EC3F
:101E900002F00B016D6B000149EC02F00B0174A61E
:101EA00006D0700E6A6F00016EEC06F00B0174A490
:101EB00006D06F0E6A6F00016EEC06F00B0174A283
:101EC00006D06E0E6A6F00016EEC06F00B012A9BC5
:101ED000A38A2AA907D06A0E596F000152EC06F0B6
:101EE0000B012A990001925104080BE095EF06F0CE
:101EF0000B012AA704D00001A4EF07F00B0105D0C5
:101F00000001D1EF07F032D60B010B0E5A6F420ED3
:101F1000596F000186D601520DE0D1D621EC09F0AF
:101F20000B0E0B015A6F420E596F0001D0D60B01F8
:081F3000ECD700017DD703008E
:00000001FF
;PIC18F6680
